:020000040800F2
:10000000703A0224E5040008336B0008A16100087F
:10001000316B0008A5240008FD9B000800000000CB
:10002000000000000000000000000000250400089F
:10003000152500080000000081040008497300082D
:100040000305000803050008030500080305000870
:100050000305000803050008030500080305000860
:100060000305000803050008030500080305000850
:100070000305000803050008030500080305000840
:100080000305000803050008030500080305000830
:100090000305000803050008030500080305000820
:1000A0000305000803050008030500080305000810
:1000B0000305000803050008030500080305000800
:1000C00003050008030500080305000803050008F0
:1000D00003050008030500080305000803050008E0
:1000E00003050008030500080000000003050008E0
:1000F00003050008030500080305000803050008C0
:1001000003050008030500080305000803050008AF
:100110000305000803050008097500080305000829
:10012000030500080305000803050008030500088F
:10013000030500080305000803050008030500087F
:1001400000000000000000000000000000000000AF
:10015000030500080305000803050008030500085F
:10016000030500080305000803050008030500084F
:10017000030500080305000803050008000000004F
:10018000030500080305000803050008030500082F
:10019000030500080305000803050008030500081F
:1001A000030500080305000803050008030500080F
:1001B00003050008030500080305000803050008FF
:1001C00003050008030500080305000803050008EF
:1001D00003050008356B0008030500080305000847
:1001E00003050008030500080305000803050008CF
:1001F00003050008030500080305000803050008BF
:1002000003050008030500080305000803050008AE
:10021000030500080305000803050008030500089E
:10022000030500080305000803050008000000009E
:10023000030500080305000800000000030500088E
:10024000030500080305000803050008030500086E
:10025000030500080305000803050008030500085E
:10026000030500080305000803050008030500084E
:10027000030500080305000803050008000000004E
:10028000030500080305000803050008000000003E
:10029000000000000305000800F002F800F0B2F8CA
:1002A0000AA090E8000C82448344AAF10107DA45D1
:1002B00001D100F0A7F8AFF2090EBAE80F0013F071
:1002C000010F18BFFB1A43F001031847FCC10000DF
:1002D0001CC200000A444FF0000C10F8013B13F060
:1002E000070408BF10F8014B1D1108BF10F8015B8F
:1002F000641E05D010F8016B641E01F8016BF9D182
:1003000013F0080F1EBF10F8014BAD1C0C1B09D1D8
:100310006D1E58BF01F801CBFAD505E014F8016B4A
:1003200001F8016B6D1EF9D59142D6D370470000DC
:100330000023002400250026103A28BF78C1FBD8EE
:10034000520728BF30C148BF0B6070476E2900F0CC
:100350002B83702900F0758466290BF0428765298C
:100360000BF03F8767290BF03C8761290BF03B8737
:1003700003681B0A28BF41F08001692900F0D88278
:10038000642900F0D582752900F0D2826F2900F02F
:100390000284782900F04184E92900F09D83E42952
:1003A00000F09A83F52900F09783EF2900F0FF838E
:1003B000F82900F040840368DB0928BF41F0800180
:1003C000632901F04381732901F04881E32901F099
:1003D0005381F32901F05881002070471FB50BF0BD
:1003E000FBFE01F0A3F90400002000210BF0DEFE6B
:1003F000401C6060002000210BF0C2FEE0601FBDC9
:1004000010B510BD01F064F91146FFF7E7FF09F0E0
:10041000D3FF01F041FA03B4FFF7F2FF03BC01F090
:100420007DFA00002C4B19680868B0E8F04F80F3A3
:100430000988BFF36F8F4FF0000080F31188704779
:100440000000000008480068006880F308884FF04A
:10045000000080F3148862B661B6BFF34F8FBFF31C
:100460006F8F00DF00BF00BF08ED00E0DFF80C0079
:10047000016841F470010160704700BF88ED00E041
:10048000EFF30980BFF36F8F134B1A681EF0100F44
:1004900008BF20ED108A20E9F04F106009B44FF03A
:1004A000500080F31188BFF34F8FBFF36F8F0AF0B6
:1004B00063FF4FF0000080F3118809BC19680868D9
:1004C000B0E8F04F1EF0100F08BFB0EC108A80F3B8
:1004D0000988BFF36F8F704730000024EFF3058069
:1004E000704700000A4880470A4880470A4800478A
:1004F000FEE7FEE7FEE7FEE7FEE7FEE7FEE7FEE7D4
:10050000FEE7FEE705480649064A074B704700002C
:10051000852500081174000899020008703402242F
:10052000703A0224703602247036022453EA020C18
:1005300000F069802DE9F04B4FF00006002B1FBF43
:10054000B3FA83F503FA05F424FA05F65E4012BF08
:100550001643B2FA82F502FA05F4C5F120051EBF72
:1005600022FA05FC44EA0C04203556EA044C4FEA12
:10057000144418BF641C4FF000084FF0000990426B
:1005800071EB030C39D3002919BFB1FA81F701FAD5
:1005900007F6B0FA80F700FA07F6C7F120071EBF8A
:1005A00020FA07FC46EA0C062037B6FBF4FCA7EB62
:1005B0000507103F07F01F0BCBF120060CFA0BFBD1
:1005C0002CFA06F644BFB3460026202FA4BF5E4691
:1005D0004FF0000B5BEA060C08BF4FF0010B19EB64
:1005E0000B09ABFB027C48EB0608C01B06FB02CCE8
:1005F0000BFB03CC71EB0C01C1E70B4602464146F5
:100600004846BDE8F08B13B54FF000004FF00001F5
:10061000AFF30080BDE81C40704710B54C1084EA71
:10062000530404D54042C1F1000138BF491E1B42AA
:1006300004D55242C3F1000338BF5B1EFFF776FFBB
:1006400014F0804F04D04042C1F1000138BF491E70
:1006500014F0004F04D05242C3F1000338BF5B1EB8
:1006600010BD00007CB51D4616460C00009001D060
:100670002044401E074B7B442A4669460190304681
:1006800000F0ABF905461CB10020694600F0B8F94E
:1006900028467CBD9103000010B5431C02E010F811
:1006A000011B71B18107FAD14FF0013202C88C1AD7
:1006B0008C4314EAC211F9D0C01A0A0603D0C01E36
:1006C00010BDC01A10BD0A0401D0801E10BD090261
:1006D000FCD0401E10BD032A40F2308010F0030C05
:1006E00000F0158011F8013BBCF1020F624498BF85
:1006F00011F801CB00F8013B38BF11F8013BA2F122
:10070000040298BF00F801CB38BF00F8013B11F09C
:10071000030300F02580083AC0F0088051F8043B3C
:10072000083A51F804CBA0E80810F5E7121D5CBFA9
:1007300051F8043B40F8043BAFF30080D20724BFDC
:1007400011F8013B11F801CB48BF11F8012B24BF70
:1007500000F8013B00F801CB48BF00F8012B7047BF
:1007600010B5203AC0F00B80B1E81850203AA0E84C
:100770001850B1E81850A0E81850BFF4F5AF5FEA80
:10078000027C24BFB1E81850A0E8185044BF18C933
:1007900018C0BDE810405FEA827C24BF51F8043BDA
:1007A00040F8043B08BF7047D20728BF31F8023B2E
:1007B00048BF11F8012B28BF20F8023B48BF00F8C2
:1007C000012B704702F0FF0343EA032242EA024290
:1007D00000F002B84FF000020429C0F0128010F0BF
:1007E000030C00F01B80CCF1040CBCF1020F18BF0D
:1007F00000F8012BA8BF20F8022BA1EB0C0100F0A0
:100800000DB85FEAC17C24BF00F8012B00F8012B72
:1008100048BF00F8012B70474FF0000200B51346A7
:1008200094469646203922BFA0E80C50A0E80C5010
:10083000B1F12001BFF4F7AF090728BFA0E80C50C1
:1008400048BF0CC05DF804EB890028BF40F8042BBA
:1008500008BF704748BF20F8022B11F0804F18BF27
:1008600000F8012B704770477047704770B5044619
:1008700085690068C10601D5302600E02026C00742
:1008800007D070BDD4E9012130469047206A401C52
:1008900020626D1EF6D570BD70B50446856900787E
:1008A000C00707D170BDD4E9012120209047206AFC
:1008B000401C20626D1EF6D570BD09684A0501D541
:1008C00040B27047C905FCD500B2704709684A05B7
:1008D00001D5C0B27047C905FCD580B2704770B56C
:1008E0000C460546012A05D02878800600D5EA691D
:1008F000002302E0012305E05B1C934202D2E05C8E
:100900000028F9D1A869E618C01AA861286A184415
:1009100028622846FFF7AAFF04E0D5E9012114F870
:10092000010B9047B442F8D32846FFF7B5FF70BDDE
:100930002DE9F0410646002410687529314616A5B8
:1009400010D0FFF7BAFF002802DA404213A507E0F3
:1009500031688A0701D512A502E0490704D511A51F
:10096000012401E0FFF7B2FF00210A2206F124076B
:1009700009E0B0FBF2FCB0FBF2F302FB1C003030EC
:1009800078541846491C0028F3D123462A4630469D
:10099000BDE8F04100F069BA000000002D00000041
:1009A0002B0000002000000011680268006A530557
:1009B00001D508700AE0D30501D5088006E01306CA
:1009C00003D5C217C1E9000200E0086001207047AA
:1009D00001694A1C02610878704700B58FB0CDE903
:1009E00001310021059105497944CDE903101146F3
:1009F000684600F031F90FB000BD0000E5FFFFFFD1
:100A00000A6802F8010B0A607047D1E900239A4294
:100A100002D2531C0B601070704700002DE9FF5F7D
:100A200015468A460446DFF8AC80F8440027D8E92A
:100A300000103E46CDE9001010E03AF816106A4664
:100A400002A800F025FE411C07D02178890603D5B5
:100A5000E269391891420DD80744761C2078800647
:100A600002D5E069B84205DDAE42E6DB3AF8160091
:100A70000028E2D1A069C01BA0612046FFF7F6FE66
:100A8000D8E90010CDE90010002017E03AF818105E
:100A90006A4602A800F0FCFDB0F1FF3F81460BD092
:100AA00000250DF1080B05E0D4E901211BF8050034
:100AB00090476D1C4D45F7D308F10100B0428046C8
:100AC000E4DB206A384420622046FFF7E5FEBDE8FB
:100AD000FF9F0000EAB800002DE9F0418046D21DDA
:100AE00022F007020025D2E90002F52915A614D04C
:100AF000011E72F1000106DA0023D0EB030063EB64
:100B0000020211A608E0D8F800108B0701D50FA645
:100B100002E0490701D50EA601251146002408F17F
:100B2000240704E000F05CF930323A55641C50EAC6
:100B30000102F7D12B46324621464046BDE8F0413E
:100B400000F093B9000000002D0000002B00000011
:100B50002000000030B4002100F1240408E002F07D
:100B60000705D208303542EA4372DB086554491C58
:100B700052EA0305F3D10468002310A2250707D524
:100B8000A40600D421B1C46901230DA2641EC4616E
:100B900030BC00F06AB910B5044621461068FFF772
:100BA00095FE02462046BDE810400023D2E7D21D44
:100BB00022F00701D1E90023CCE70000000000008B
:100BC00030000000F0B40D460188090502D5214C23
:100BD0007C4402E01F4C7C440E34002100F12406CA
:100BE00008E002F00F071209E75D42EA03721B09F1
:100BF0007754491C52EA0307F3D102780023120705
:100C000004D5702D06D009B1022311342246F0BC60
:100C100000F02BB901231034F8E770B504460D46F7
:100C200021461068FFF752FE024629462046BDE8DD
:100C300070400023C6E7D21D22F00703D3E900234A
:100C4000C0E70368126843F0200303600823C36110
:100C50000023B7E74CB700002DE9F05F8946044652
:100C60004FF0000ADFF874B1FB44C0F820A0204622
:100C7000E1688847002874D0252806D0D4E90121EE
:100C80009047206A401C2062F1E700265F4620461C
:100C9000E16888472028054607DB312D05D2781901
:100CA00010F8200C08B10643F1E7B00701D526F093
:100CB0000406C4F81CA00027C4F818A02A2D09D0E7
:100CC000284608F0C5FF38B304EB8708303DC8F864
:100CD000185019E059F8041B204604EB8702916173
:100CE000E1688847012F054618D1E069002820DA1D
:100CF00026F020061DE0D8F8180000EB800005EB78
:100D000040003038C8F818002046E168884705469A
:100D100008F09EFF0028EED1012F0AD02E2D08D119
:100D20002046E16888477F1C0546022F46F02006D2
:100D3000C4DBA069002803DA404246F00106A06146
:100D4000F00701D026F010066C2D0BD0682D09D0CD
:100D50004C2D39D06A2D35D0742D35D07A2D33D025
:100D600016E038E0E1682F4620468847B84205463D
:100D700009D16C2F26D04FF48060E16806432046ED
:100D80008847054604E06C2F1AD04FF48070064364
:100D90000DB3A5F14100192802D8203546F40066AC
:100DA0004A462946204626604E46FFF7CFFA80B1D4
:100DB00001280BD0F61D26F0070000F1080956E7C0
:100DC0004020E4E78020D8E70020D6E706F10409B8
:100DD0004DE7284652E7206ABDE8F09FDCB60000E8
:100DE00030B5B0F10A024FEA900E71F100034EEAFD
:100DF000817EB0EB0E0061EB91014FEA101E4EEACE
:100E0000017E10EB0E0041EB11114FEA102E4EEA5D
:100E1000016E10EB0E0041EB11214FEA104E4EEA2D
:100E2000014E10EB0E0041EB1141401841F1000161
:100E30004FEAD00040EA41704FEAD10110EB800543
:100E40004FEA810444EA907444EB01046D1944EBC9
:100E50000404521BA3414FF0000348BF0A3200D5DF
:100E600030BD401C41F1000130BD2DE9F0470D4679
:100E700099469246044600F124080168880604D584
:100E8000E06921F01001216000E00120A84201DDAD
:100E9000471B00E00027A1697A1902EB0900081A34
:100EA000A0612078C00602D42046FFF7DFFC0026B0
:100EB00008E0D4E901211AF806009047206A401C96
:100EC000761C20624E45F4DB2078C0060AD5204609
:100ED000FFF7CCFC06E0D4E9012130209047206ADE
:100EE000401C2062381EA7F10107F4DC07E0D4E9BA
:100EF000012118F805009047206A401C2062281E36
:100F0000A5F10105F3DC2046FFF7C6FC20780006BA
:100F100002D50220BDE8F0870120FBE770472DE9EC
:100F2000FF4F0C461E464FF0FF378BB0D2E9000151
:100F3000DDF860800A908A46C1F30A5505B93D463E
:100F4000002108464FF00000BAF1000F00F4400005
:100F500005DA00EB80004FF4400101EA50004FEA4F
:100F60009059B9F1010F00DDB9460A9850EA4A00DC
:100F70000ED044F61050A5F2FF3545432F14B8F1BA
:100F8000000F1ED07542291E1EDDC9F100021CE0B3
:100F9000B8F1010F4FF0000001D0302103E0F2431F
:100FA00005E02154401CB042FBDB3046002200210A
:100FB00021540B99C1F80880C1E900200FB0BDE8A9
:100FC000F08FBD1B6D1CDEE74A4600DA694206A8B9
:100FD00000F0F0FB06AB93E8070003AB83E80700E3
:100FE00050460A9900F0A1FC8DE80700A0F50050DA
:100FF0001F3800900398002D0ADD42F21F014A4677
:101000000844002303A90390684600F00AFF09E0A2
:10101000A0F500504A461F38002303A903906846F4
:1010200000F014FF8DE807000004000C03D04FF01F
:10103000FF30410800E01046B8F1000F03D0002255
:10104000009215461EE0751E05D4FFF7C9FE30322A
:1010500062556D1EF9D5B3460122084302D0002225
:101060007F1C04E02078302801D100227F1E002A56
:10107000099784D01DE0112D07DAFFF7B1FE303259
:1010800062556D1C50EA0102F5D1084302D0009868
:10109000C8B10EE00021681E05E0235C625C635469
:1010A0002254401E491C8142F7DBAB46A81B401E60
:1010B0000990002004F80B000B98099AC0F80880EA
:1010C000C0E9002B7AE711264FF0000857E72DE919
:1010D000F04F88460446D21D22F0070191B0D1E9B5
:1010E0000001CDE90A0108F08AFD02460B98C00F05
:1010F00001D02D2007E02068810701D52B2002E0D8
:10110000202101EAC000032A099001D0072A05DB4B
:1011100003464146204600F00DFB0BE12078800697
:1011200001D5E06900E00620B8F1650F814606D0E0
:10113000B8F1660F18D0B8F1670F70D131E0002018
:10114000B9F1110F009001DB112301E009F1010356
:101150000AAA01A90CA8FFF7E2FEDDE90C7000263F
:1011600009F10105834647E001204B4600904FF00E
:1011700000470AAA01A90CA8FFF7D1FEDDE90DB0CE
:101180000C995D46002610B909F101000D18B9EB64
:10119000050003D4C0F1FF3609F10105A5EB0900F4
:1011A0002BE0B9F1010F01DA4FF001090020B9F18C
:1011B000110F0090484601DD112300E003460AAA02
:1011C00001A90CA8FFF7ABFEDDE90C704D46002627
:1011D0008346207800070AD4AB4500DA5D4601A8B3
:1011E000012D04DD411911F8011C302907D04F45AC
:1011F00002DA17F1040F04DA012082460FE06D1EB7
:10120000EEE7002F02DCED1B3E4403E0781CA84211
:1012100000DD7D1CB81B00F1010A4FF0004720786B
:10122000000703D4AA4501DB4FF0FF3A0021B7F1D4
:10123000004F0DF143088DF8431024D002202B23DA
:10124000002F01DA7F422D230A21021EA0F10100A6
:1012500000DC5FB197FBF1FC97FBF1F201FB1C7C1A
:1012600017460CF1300C08F801CDEEE7A8F10100AB
:1012700003702188090501D5452100E06521A0F111
:10128000010800F8011C09980FA9A1EB0807FF1D30
:1012900000B10120411901EBEA70A1693844081A34
:1012A000401EA0612078C00602D42046FFF7DEFA77
:1012B000099828B1D4E901219047206A401C206296
:1012C0002078C00622D52046FFF7D0FA1EE0002E77
:1012D00004DBB34502DD01A8805D00E03020D4E9E5
:1012E00001219047206A401C2062761CAAF101006F
:1012F0005FEA000A0AD100F019FAC0680168405C90
:10130000D4E901219047206A401C2062281EA5F1E3
:101310000105DCDC07E0D4E9012118F8010B904756
:10132000206A401C2062381EA7F10107F3DC20462A
:10133000FFF7B2FA032011B041E600002DE9F04FAB
:1013400004460D46D21D22F0070089B0D0E900976F
:101350004846394608F053FC0246F80F01D02D23C9
:1013600007E02068810701D52B2302E0202101EA54
:10137000C0038DF820300BB1012000E00020032ACB
:10138000824601D0072A04DB2946204600F0D2F924
:101390003FE12078800601D40D2500E0E569C7F320
:1013A0000A560D2D49DA00214FEA175B08464FF027
:1013B0000000002F00F4400007DA00EB80004FF43B
:1013C000400100EBD07001EA60008115012901DDC8
:1013D0004FF0FF3100224FEA850CBCF1180F06D305
:1013E0001346ACF118004FF08052C24003E04FF4B6
:1013F000801323FA0CF30CF10C0CBCF1200F04D376
:10140000ACF1200C09FA0CF001E007FA0CF000290D
:101410004FF0004801DD18B90FE00ED140450CD364
:1014200019EB02095F4121B9404502D19F4329EAE6
:101430000209BBEB175F00D0761C2088000502D59F
:101440007B48784402E07A487844193808AA302367
:1014500002F80A30037C0AF10101002E0AF1020AA7
:1014600053546A4602DC4FF0300101E04FF0310185
:101470004FF001088DF8001002D0A6F2FF3603E00D
:1014800059EA470100D06B4E002D02DC2178090794
:1014900004D54FF002082E218DF80110C44600211A
:1014A0000BE0C7F303433F01C35C491C6D1E02F808
:1014B0000830052908F1010801DA002DF1DC0021CE
:1014C0000CE000EB1973491C1B786D1E082902F80B
:1014D00008304FEA091908F1010801DA002DF0DCA3
:1014E00021688B0602D516E0A8F10108E04505DD6C
:1014F00002EB080313F8013C302BF5D0B8F1000FD4
:1015000009DD02EB080313F8013C2E2B03D1090778
:1015100001D4A8F10108002D05DD3E2102F80810D4
:101520006D1E08F10108407C002E02F8080008F149
:10153000010804DA2D20764202F8080002E02B2090
:1015400002F808000A214FF47A70864208F1010877
:101550000BDB96FBF0F3303302F8083096FBF0F328
:1015600008F1010800FB136601E0642E0CDB642027
:1015700096FBF0F3303302F8083096FBF0F308F1F5
:10158000010800FB136601E00A2E06DB96FBF1F072
:10159000303002F8080008F1010896FBF1F001FB79
:1015A0001060303002F80800A16908F1010808EB6A
:1015B000050202EB0A00081AA0612078C00602D4D6
:1015C0002046FFF753F9216A08AE01EB0A002062BA
:1015D00004E0D4E9012116F8010B9047BAF1010AA1
:1015E000F7D22078C00602D52046FFF73FF96E46B5
:1015F00009E016F8010B3E280FD0D4E901219047ED
:10160000206A401C2062B8F10108F2D22046FFF7A0
:1016100043F909B00320BDE8F08F206A2844206216
:1016200003E0D4E90121302090476D1EEBD3F8E7A9
:1016300026AF000002FCFFFF10B5436913B1AFF302
:10164000008001E0FFF74BF9012010BD127800F196
:1016500024010A7000224A700122EDE711684FF060
:10166000FF32E9E710B5436913B1AFF3008001E041
:10167000FFF7D4F9012010BD128800F12401828403
:101680000022C2840122EDE711684FF0FF32E9E742
:1016900070B516460C46054600F040F8036893F80E
:1016A0000101012806D0FF2C0FD8185D68B1012078
:1016B0002C7070BDD3F807013246214603F20713A0
:1016C00003442846BDE8704018474FF0FF3070BD16
:1016D000754600F0EBF8AE4605006946534620F02B
:1016E0000700854618B020B5FEF70CFFBDE8204086
:1016F0004FF000064FF000074FF000084FF0000BCE
:1017000021F00701AC46ACE8C009ACE8C009ACE880
:10171000C009ACE8C0098D467047000010B500F064
:1017200005F8001D10BD00BF85AA000000487047E5
:101730002C3402242DE9F0411F460446032601689B
:10174000072A01F4006004DB08B116A505E016A520
:1017500003E008B115A500E015A521F010002060F8
:10176000A069C01EA0610FB1401EA0612046FFF716
:101770007DF84FB1D4E9012138469047206A401CDA
:101780002062C01C206206E0206AFAE7D4E9012149
:1017900015F8010B9047761EF8D22046FFF77CF82B
:1017A000BDE8F0814E414E006E616E00494E46002C
:1017B000696E66002DE9F047814616468AB03548C5
:1017C00078440DC88DE80D0032487844801C03AC85
:1017D0000DC884E80D0041F69B300844372190FB8A
:1017E000F1F290FBF1F5A5F1800501FB12041B3C21
:1017F00002D56442012000E00020DFF898A0804676
:101800000027FA44AAF1BE0A0EE0E0070AD03246E9
:10181000684607EB470101230AEB810100F016FB44
:101820008DE8070064107F1C002CEED1194F7F4417
:10183000AE3F19E0E80715D007EB04100DF1180AC8
:1018400090E80E008AE80E00C068F04201D19819B5
:1018500008903246012306A903A800F0F7FA03AB6B
:1018600083E807006D10641C002DE3D14FF00103E5
:1018700032466946B8F1000F03A802D000F0D1FA51
:1018800001E000F0E3FAC9E90001C9F808200AB054
:10189000BDE8F08738AC000010B50446AFF3008017
:1018A0002046BDE81040FEF7B6BD00000048704776
:1018B0000C3402244FF0013C50F8042B51F8043B47
:1018C0009A4215D1A2EB0C03934313EACC130BD12C
:1018D00050F8042B51F8043B9A4209D1A2EB0C03B7
:1018E000934313EACC13E7D04FF00000704700BFDA
:1018F000D01A01BAB1FA81F101F0180122FA01F00F
:10190000CB40C1F12001DBB2C0B2C01A2CFA01F306
:10191000D11A914311EAC311E6D170470149182049
:10192000ABBEFEE72600020070475FEA400C08BF2E
:1019300091F0000F4FEA8C234FEAC12243EA515144
:101940004FEA1C5018BF00F5F0404FEA300018BFB6
:1019500041F000415FEA6C5C00F02980BCF1FF3F80
:1019600008BF40F080407047130C06BF12044FF0D0
:10197000100C4FF0000C130E04BF12020CF1080CF7
:10198000130F04BF12010CF1040C930F04BF92005B
:101990000CF1020CD30F04BF52000CF1010C1146E4
:1019A0004FF00002A0F11F00A0EB0C00704711F0F7
:1019B000004F08BF704731F000413FF4D5AF0B0C2A
:1019C00006BF09044FF0100C4FF0000C0B0E04BFC3
:1019D00009020CF1080C0B0F04BF09010CF1040CF7
:1019E0008B0F04BF89000CF1020CCB0F04BF490020
:1019F0000CF1010CCCF12003A0EB0C0022FA03F354
:101A000002FA0CF241EA030100F10100704720F0F4
:101A10007F4C80EA030023F07F47ACEB070303F51C
:101A20007C5300F0004003F1FF032DE980494FEAA9
:101A3000154B09B44FEA144325EA0B4E24EA034838
:101A40000FF2042606EB132749083E785FEA3202BC
:101A500003FB0667C7F5000707FB06F64FEA543796
:101A60004FEAD64606F1020607FB066CCCF1005C95
:101A70004FEA1C472CEA074C07FB06F40CFB06F563
:101A800004EB15464FEA961634BF00204FF0004095
:101A90004FEAD13706FB07FC4FEA1C4C0CFB0BF757
:101AA000D21B03FB0CF761EB07010CFB0EF7B0EB4D
:101AB000074072EB17420CFB08F734BFA2EB07425A
:101AC000B2EB074261EB17414FEA0C444FEA910732
:101AD00006FB07FC4FEA1C4C0CFB0BF7B0EBC740B6
:101AE00072EB573203FB0CF734BFA2EBC742B2EBE9
:101AF000C74261EB57310CFB0EF7B0EBC70072EB3E
:101B000057720CFB08F734BFA2EBC702B2EBC70257
:101B100061EB5771039F4FEA816141EA921104EB37
:101B2000CC044FEAD1374FEA826206FB07FC42EA57
:101B300090124FEA80604FEA1C4C0CFB0BF7D21B53
:101B400003FB0CF761EB07010CFB0EF7B0EB074052
:101B500072EB17420CFB08F734BFA2EB0742B2EB63
:101B6000074261EB17414FEA8C554FEA910704EBAE
:101B70009C2406FB07FC4FEA1C4C0CFB0BF7B0EB5C
:101B8000C74072EB573203FB0CF734BFA2EBC742DE
:101B9000B2EBC74261EB57310CFB0EF7B0EBC7005D
:101BA00072EB57720CFB08F734BFA2EBC702B2EB23
:101BB000C70261EB577115EB4C254FEA816141EA91
:101BC00092114FEA82624FEAD13742EA901206FB45
:101BD00007FC44F100044FEA80604FEA1C4C0CFB08
:101BE0000BF7D21B03FB0CF761EB07010CFB0EF7A5
:101BF000B0EB074072EB17420CFB08F734BFA2EBC7
:101C00000742B2EB074261EB174115EB1C154FEA97
:101C1000813141EA92414FEA823242EA90424FEAF0
:101C200080304FEA0C7644F1000448EA03434EEA60
:101C30000B484FF0000EB2EB080C71EB030724BF0A
:101C4000624639464EEB0E0E4FF0000B0018524123
:101C500049414BEB0B0BB2EB080C71EB03077BF12B
:101C6000000B24BF624639464EEB0E0E4FF0000BC0
:101C70000018524149414BEB0B0BB2EB080C71EBD6
:101C800003077BF1000B24BF624639464EEB0E0E74
:101C900051EA020718BF46F0010616EB0E7655F121
:101CA000000254F1000103D5BDE88901BDE80088B8
:101CB000BDE88901BDE80048B619524141EB010178
:101CC000A3F10103704780807F7E7D7C7B7A7978E9
:101CD000777676757473727171706F6E6E6D6C6CF1
:101CE0006B6A6A6968686766666564646363626193
:101CF0006160605F5F5E5E5D5D5C5C5B5B5A5A5914
:101D0000595858575756565555555454535352527F
:101D10005251515050504F4F4F4E4E4D4D4D4C4CD7
:101D20004C4B4B4B4A4A4A49494948484847474720
:101D3000474646464545454444444443434343425D
:101D4000424242414141002B9C4630D477002BD087
:101D50001CB54FEA370703B44FF010004FF01001E5
:101D6000BAF1000F06D0BCF1000FDCBF40F0080054
:101D700040F008014FF000000FBCBDE810400BF12F
:101D8000010BBBF1010F08BF5FEA170722BF12F179
:101D9000010211F101014FF0004143F1000300F095
:101DA000004043EA00007047F9D35708D0E746EAFD
:101DB000064613F1400F4FEA16461FDD13F1200FC0
:101DC000DFBF16430A46002120335B42BED0C3F179
:101DD000200746EA064602FA07F74FEA164646EAA1
:101DE0000706C3F1200722FA03F201FA07F721FAE6
:101DF00003F14FF0000342EA0702A7E746EA0206B2
:101E000046EA06464FEA164646EA0106BCBF46EADF
:101E10000646360C4FF000034FF000024FF0000171
:101E200094E72DE9804C9A46934670B491E83800C7
:101E300007C831EA400C48BF34EA430C03D5FFF72A
:101E4000E6FDFFF780FFF0BCBDE8008C2DE9804C7B
:101E50009A46934670B491E8380007C810F0804F56
:101E600008BF13F0804F03D100F005F8FFF76BFFB8
:101E7000F0BCBDE8008C20F07F4780EA030023F02F
:101E80007F4C07EB0C03A3F57C5300F00040A3F15B
:101E9000FE0392F0000F00F0B38095F0000F00F009
:101EA00077802DE901494FEA11404FEA144621EAB3
:101EB000004800FB06FC24EA064708FB06F607FB81
:101EC00008F800FB07F718EB06484CEB164C4FEAF6
:101ED000124B18EB07484FEA15464CEB174022EA25
:101EE0000B4E0BFB06FC25EA06470EFB06F607FB2E
:101EF0000EFE0BFB07F71EEB064E4CEB164C4FF09D
:101F000000061EEB074E4CEB174B18EB0B0840F18D
:101F1000000018EB0E0B58EB000840F100008F1A80
:101F20004FF000013CBFC943661B14BFB5EB040C66
:101F300000213CBFC943F61B4FEA17444EEA8E0E00
:101F400027EA04454FEA1C4704FB07622CEA074CCA
:101F500005FB07F70CFB05F604FB0CFC16EB07462C
:101F600042EB174216EB0C4642EB1C421BEB0606FB
:101F700058EB0202414146EA9E0601D5BDE80189BF
:101F8000B619524141EB0101A3F10103BDE80189FA
:101F90004FEA14454FEA114724EA054621EA074C67
:101FA00005FB07F406FB07F70CFB06F105FB0CFC31
:101FB00011EB074144EB17444FEA124711EB0C4178
:101FC00044EB1C4422EA074C05FB07F206FB07F72B
:101FD0000CFB06F605FB0CFC16EB074642EB174222
:101FE00016EB0C4642EB1C456A1854F1000148BF41
:101FF0007047B619524141EB0101A3F1010370474B
:1020000095F0000F37D04FEA11424FEA144721EA0A
:10201000024624EA074C02FB07F106FB07F70CFB1C
:1020200006F402FB0CFC14EB074441EB17414FEAAA
:10203000154714EB0C4441EB1C4125EA074C02FB0D
:1020400007F506FB07F70CFB06F602FB0CFC16EB8C
:10205000074645EB174516EB0C4645EB1C4212199B
:1020600051F1000148BF7047B619524141EB0101DF
:10207000A3F1010370474FEA14454FEA114724EAE0
:10208000054621EA074C05FB07F106FB07F70CFBA9
:1020900006F24FF0000605FB0CFC12EB074241EB89
:1020A000174112EB0C4251EB1C4148BF704792188C
:1020B00041EB0101A3F1010370470000B4EE400AB7
:1020C000F1EE10FA01D00020704710EE100A0B4913
:1020D000884202DD6FF00040704710EE100A084998
:1020E000884201D948077047DFED060A20EE200A32
:1020F000BDEEC00A10EE100A704700006C12034AD1
:102100006C1203CA00007A443EB507F00BFE0028AB
:1021100010D107F025FE3C490720C860084602F0B0
:10212000B1FF040007D007F01BFE07F00BFE2046AE
:1021300000F01DFA3EBDB6217E2007F0E5FD04004B
:1021400053D1322407F07EFE0028204602D008F04A
:1021500073F901E000F024FA0024694620468DF866
:10216000004007F0B1FD00208DF8044001A907F000
:10217000ABFD050005D007F0F3FD07F0E3FD2846B1
:102180003EBD9DF804001E280BD100208DF80840AC
:1021900002A907F029FE040027D19DF808000F28A6
:1021A00005D007F0DDFD07F0CDFD02203EBD012189
:1021B000412007F0A9FD040017D1AB21402007F012
:1021C000A3FD040011D104217D2007F09DFD040032
:1021D0000BD101210F2007F027FE040005D10221B9
:1021E000102007F021FE040005D007F0B9FD07F02C
:1021F000A9FD20463EBD05490120087007F0B0FD4D
:1022000007F0A0FD00203EBD34020024D5010024CB
:102210002DE9FC41060014460D461AD0CDB1C4B1DB
:1022200023480078B8B107F07DFD00280FD1009059
:10223000019007F059FD06226946122007F010FDB3
:10224000074607F08DFD07F07DFD37B13846BDE844
:10225000FC810420FBE70520F9E7BDF90020BDF96A
:10226000040002EE102A00EE900ADFED121AB8EE1A
:10227000C22AF8EEE02ABDF9021000209FED0E0AF6
:10228000C2EE210A01EE101AB8EEC11A81EE212A1F
:1022900060EE800AC6ED000A82EEA11A62EE001A14
:1022A000C5ED001A21EE000A84ED000ACFE7000018
:1022B000D501002400A0AA450AE81C412DE9FC41F3
:1022C000060014460D461AD0CDB1C4B1234800789B
:1022D000B8B107F027FD00280FD10090019007F05A
:1022E00093FD06226946022007F04AFD074607F0E3
:1022F00037FD07F027FD37B13846BDE8FC810420E3
:10230000FBE70520F9E7BDF90020BDF9040002EE66
:10231000102A00EE900ADFED121AB8EEC22AF8EE8B
:10232000E02ABDF9021000209FED0E0AC2EE210A3C
:1023300001EE101AB8EEC11A81EE212A60EE800A71
:10234000C6ED000A82EEA11A62EE001AC5ED001A6F
:1023500021EE000A84ED000ACFE70000D501002439
:102360006F12834135FA8E3C30B587B007F046FED8
:10237000002839D100258DF818500122D02006A957
:1023800007F072FE04002CD19DF81800582801D0E7
:10239000022426E0B621E02007F0CCFE040020D184
:1023A000052407F0AFFE0028204602D008F044F8CC
:1023B00001E000F0F5F818226946882007F054FE85
:1023C00004000ED1684607F033FE5721F42007F0D1
:1023D000B1FE040005D19021F52007F0ABFE04000A
:1023E00004D007F099FE204607B030BD0448012113
:1023F00085704560417007F08FFE0020F4E7000013
:10240000CC0100247CB5040009D0184D687840B197
:1024100007F0F4FD002803D1A87820B108E00420DB
:102420007CBD05207CBD01A807F034FE050006D167
:1024300003226946F72007F017FE050003D007F0D6
:102440006BFE28467CBD684607F0E8FD07F016FDE8
:1024500000EE100ADFED060AB8EE400A20EE200A70
:1024600084ED000A07F058FE00207CBDCC0100245A
:102470000000803B10B504000ED00948407868B1D8
:1024800007F0BCFD002806D1204607F003FE0446F5
:1024900007F042FE204610BD042010BD052010BDEF
:1024A000CC010024FEE700207047002070470000A8
:1024B00005490022054810B505F0B4FF044903485A
:1024C00005F0A3FF002010BD98230224BC160224AF
:1024D000981B02240146044810B505F096FF0248F7
:1024E00005F06CFF002010BDBC16022400207047D0
:1024F00010B5064C606920B9054808F01DF8606108
:1025000008B1002010BD052010BD0000A801002466
:10251000F8C20008704700000C4870B50C4900680C
:10252000884201D0042070BD0A4C0025606820B9A3
:10253000094808F001F8606020B10120A560207012
:10254000002070BD0520257070BD00000803002428
:1025500000100140C001002408C300080FB410B5EA
:1025600004AA039907F032FE10BC5DF814FB0028A2
:1025700004D0022801D0032800D00120704772B691
:10258000FEE70000054805490839026842F00202EA
:10259000026008688004FCD5704700000C480258AF
:1025A00070B5044600F034F90546601C02D00448BA
:1025B0000078044400F02CF9401BA042FAD370BD0F
:1025C0001C0000242DE9F84F03247F4D00234FF019
:1025D00001094FF0B04B4FF00F0AEDE009FA03F696
:1025E00032407AD00F7907F00307012F01D0022F74
:1025F00019D187684FEA430ED1F80CC004FA0EF8DF
:1026000027EA08070CFA0EFC4CEA070CC0F808C0D1
:10261000D0F804C00F792CEA060CC7F300179F40CE
:1026200047EA0C0747600E79F643B60702D18E6879
:10263000012E0BD0C6684FEA43088F6804FA08FCE5
:1026400026EA0C0607FA08F73743C7600E7906F04A
:102650000306022E12D1DE080F694FEA437C00EB1D
:102660008606B646366A4FEADC6C0AFA0CF807FAB8
:102670000CF726EA08063743CEF820700F79066873
:102680004FEA430807F0030704FA08FC07FA08F7C3
:1026900026EA0C06374307604E6816F4403F1CD00C
:1026A0004A4E376847F00207376036689F0706F0E2
:1026B0000206009623F0030606F1B046B6463F0F29
:1026C000D6F80864DFF808810AFA07FC404526EAD4
:1026D0000C0603D14FF0000C41E06CE0DFF8F4C0D1
:1026E000604502D14FF0010C39E0DFF8ECC06045E5
:1026F00002D14FF0020C32E0DFF8E0C0604502D1B9
:102700004FF0030C2BE0DFF8D8C0604502D14FF04A
:10271000040C24E0DFF8CCC0604502D14FF0050C7A
:102720001DE0DFF8C4C0604502D14FF0060C16E092
:10273000DFF8B8C0604502D14FF0070C0FE0DFF8BA
:10274000B0C0604502D14FF0080C08E0DFF8A4C02B
:10275000604502D14FF0090C01E04FF00A0C0CFA71
:1027600007FC4CEA060CCEF808C44F68DBF80060A2
:10277000FF0226EA020600D516435F46CBF800604A
:10278000D1F804C0DBF804605FEA8C2C26EA02066C
:1027900000D516437E606E684F6826EA0206BF03C6
:1027A00000D516436E602E684F6826EA0206FF03C6
:1027B00000D516432E605B1C0A6832FA03F67FF4DC
:1027C0000DAFBDE8F88F000080000058F4440258B7
:1027D000000002580004025800080258000C025879
:1027E000001002580014025800180258001C025829
:1027F00000200258002402580AB181617047090480
:10280000FBE7000001480068000C70470010005C06
:1028100001488068704700001C00002430B590F823
:102820004120202A24D190F84020012A20D00123E1
:1028300080F84030242280F84120202300240268C0
:10284000156825F0010515600268156825F48055A6
:102850001560026815680D43156001680A6842F04A
:1028600001020A6080F8413080F84040002030BD0D
:10287000022030BD30B590F84120202A22D190F8B6
:102880004020012A1ED0012380F84030242280F805
:102890004120202400250268136823F001031360FF
:1028A0000268136823F4706343EA01211160016830
:1028B0000A6842F001020A6080F8414080F8405006
:1028C000002030BD022030BD70B5040004D094F863
:1028D0004100002510B106E0012070BD204684F8BB
:1028E000405000F0AFF9242084F8410020680168CE
:1028F00021F001010160D4E9001020F0706008614E
:102900002068816821F400418160E0682168012825
:10291000A06830D040F404408860E0680228206855
:1029200041682BD021F40061416020682021154AC4
:102930004368134343602068C26822F40042C260C7
:1029400054F8106B0DCC104340EA0320F06054F8AB
:102950001C3CD4E900021043186054F81C0D0268B6
:1029600042F001020260656484F84110256384F836
:102970004250002070BD40F40040CDE741F40061BA
:10298000D2E70000008000022DE9FF4F83B004462B
:1029900090F841009A469346DDE91087DDF84890AB
:1029A000202874D15FEA080014D09FB194F8400049
:1029B00001286CD0012084F84000FFF729FF012294
:1029C000064619230090D103204603F0D9FD0028C4
:1029D00071D103E04FF4007060646CE00025C4F82E
:1029E0002480222184F84110402084F8420065644C
:1029F0006785534665635A4604992046CDE900969B
:102A000003F042FD10B184F8405054E0618DFF277F
:102A100034484FF08078FF294FF0007A04D9278599
:102A20003A464346009005E0618D5346218500906B
:102A300094F828202046049903F08AFD00224B4692
:102A400004212046009603F09BFDA0BB2068616A2C
:102A5000406A0870606A401C6062208D401E81B22E
:102A60002185608D401E6085608DD8B1D1B900226E
:102A70004B4680212046009603F082FDD8B9608D38
:102A8000FF2805D927853A464346009506E026E00B
:102A9000608D53462085009594F82820204604999F
:102AA00003F056FD608D0028C8D1324649462046C5
:102AB00003F0A4FD18B1012007B0BDE8F08F216834
:102AC0002020094AC86121684B6813404B6084F894
:102AD000410084F84250002084F84050ECE7022086
:102AE000EAE700000024008000E800FE2DE9FF4F27
:102AF00083B0044690F841009A469346DDE910877A
:102B0000DDF84890202871D15FEA080014D09FB109
:102B100094F84000012869D0012084F84000FFF7B4
:102B200077FE0122064619230090D103204603F0C8
:102B300027FD00286ED103E04FF40070606469E067
:102B40000025C4F82480212184F84110402084F815
:102B5000420065646785534665635A46049920467A
:102B6000CDE9009603F0C2FC10B184F8405051E06A
:102B7000608DFF274FF08078FF284FF0007A04D94E
:102B800027853A464346009505E0608D53462085EB
:102B9000009594F828202046049903F0D9FC324689
:102BA0004946204603F056FDA0BB606A21680078C4
:102BB0008862606A401C6062608D401E6085208D66
:102BC000401E80B22085618DD9B1D0B900224B461C
:102BD00080212046009603F0D3FCD8B9608DFF28F1
:102BE00005D927853A464346009506E026E0608DE4
:102BF00053462085009594F828202046049903F038
:102C0000A7FC608D0028CAD132464946204603F011
:102C1000F5FC18B1012007B0BDE8F08F2068202135
:102C2000074AC161206843681340436084F841103B
:102C300084F84250002084F84050ECE70220EAE794
:102C400000E800FE10B5B6B00446142130A8FDF728
:102C5000E3FDC0216846FDF7DFFD18492068884282
:102C60002AD10020219008210446CDE900106846B1
:102C700001F032F808B1FFF782FC1148016841F019
:102C800002010160006830AB122100F002003590B3
:102C9000C020042283E813000A4830A9CDE933425A
:102CA000FFF790FC06480830016841F4001101600C
:102CB000006800F40010359036B010BD005400409C
:102CC000E044025800040258024881680278114426
:102CD000816070471C000024032010B500F0FEF84E
:102CE00001F072FE0F4A104914681368C4F30322FE
:102CF00003F00F038A5CC95C02F01F0201F01F01A0
:102D0000D0400A4A20FA01F11160094908600F20F9
:102D100000F010F808B1012010BD00F09FF800206D
:102D200010BD000018440258E8C200082C0000241E
:102D30002800002410B5102804468AB02CD20022A6
:102D40000146362000F0AAF8362000F099F817481E
:102D500004601748016841F010010160006809A98A
:102D600000F010000890684601F0BAFD0598B0B177
:102D700001F006FE40000F4900220F4CB0FBF1F1BC
:102D80000E4840F2E7330460C0E90332491EC0E94F
:102D9000011202F093FD28B101200AB010BD01F02C
:102DA000EFFDE8E7054802F0CFFDF6E7200000243C
:102DB000E844025840420F00001000409C030024E9
:102DC000154BF0B5083B427813491A600B680A1F8F
:102DD00023F001030B6043681360057BC67A827A97
:102DE000437B2D07847B45EA0665C77B90F809C0C5
:102DF000067A90F800E045EAC24040EA834040EAA3
:102E0000444040EA074040EA0C2040EA460040EADD
:102E10000E000860F0BD0000A0ED00E0BFF35F8F82
:102E2000044800210368034A23F4803303607032AE
:102E30001160704724ED00E0074A40F001000649A8
:102E400070321060086840F480300860BFF34F8F24
:102E5000BFF36F8F7047000024ED00E0074882B099
:102E6000016841F002010160006800220F2100F0BA
:102E700002000090901E02B000F010B8F444025816
:102E8000002809DB410900F01F028900012001F13F
:102E9000E0219040C1F80001704700000E4BF0B4F3
:102EA0001B680D46C3F30223C3F10706042E00D9A5
:102EB0000426191D072901D2002300E0DB1E01248E
:102EC00004FA06F19C40491E2940641E99401440B2
:102ED0002143F0BC06F0ABBE0CED00E0064900F06B
:102EE000070210B54FF6FF040868044B204040EA83
:102EF00002201843086010BD0CED00E00000FA0548
:102F000001680123C0F8D834002280F8CC248869F5
:102F1000044A40F000608861486D10434865002015
:102F200070470000030000107047006841620020F5
:102F30007047F0B503685D6A39B19F6A4C1E002086
:102F40004FF4827605EB17450BE045EA02409862A4
:102F500010E0471C06EB800053F800C0F8B205EB08
:102F60001C45A042F5D34FF4807000EB810045EA88
:102F700002421A500020F0BDD0F8E00405F046BD32
:102F800001EBC10200EB8202D0F8E004126A05F006
:102F900096BC01EBC10200EB8202D0F8E004D2F84B
:102FA000602205F0E8BCD0F8E00405F031BD0A0667
:102FB00001F00F0101EBC10100EB810101D51431DA
:102FC00001E001F51571006806F02CBC01F00F025C
:102FD0000B0670B502EBC20104464FF001004FF042
:102FE000000504EB810102D54875143103E081F836
:102FF000555201F515710A7094F89424012A08D0ED
:1030000084F89404206806F02BF9002084F8945486
:1030100070BD022070BD70B50279044601F00F004A
:10302000904201D9012070BD01F00F024FF0000560
:103030000B0602EBC2014FF0010204EB810102D545
:103040004A75143103E081F8555201F515718D7000
:10305000087094F89404012808D084F89424206817
:1030600006F068FA002084F8945470BD022070BD08
:1030700001F00F0101EBC10100EB8100D0F8680203
:1030800070472DE9F04101F00F0604460D064FF0A0
:10309000010006EBC6014FF0000504EB810102D5EB
:1030A0004875143103E081F8555201F51571C2F3EA
:1030B0000A024F780B718A600E7007B14E83022BA3
:1030C00000D14D7194F89424012A09D084F8940415
:1030D000206806F003F8284684F89454BDE8F0818F
:1030E0000220FBE770B501F00F05002405EBC501D8
:1030F00000EB810101F5187181E81C0001F80B4C0F
:1031000001F80C5D8379012B00D1CA6182790068D6
:1031100006F068FA002070BD70B50D4601790446CE
:1031200005F00F00884201D9012070BD29064FF03B
:1031300000064FF0010206D500EBC00104EB81014F
:103140004A75143107E005EBC50104EB810181F8F4
:10315000556201F515718A70087094F8940401287D
:1031600007D084F89424206806F010FA280702D0CB
:1031700007E0022070BDA17904F29C42206806F0AD
:10318000ADF9002084F8946470BD70B501F00F04AF
:10319000002504EBC401012600EB8101203181E808
:1031A0002C0001F80B6C01F80C4D8379012B00D138
:1031B000CA618279006806F015FA002070BD00002F
:1031C0002DE9FC5F05680446284606F0FFFB002851
:1031D0007ED1206806F026FC002879D0D5F80808B2
:1031E000C0F30D20C4F8D404206806F01BFC80074F
:1031F00004D52068416901F002014161206806F0B0
:1032000011FCC10604F29C40009035D5206881690C
:1032100021F0100181612F6A07F00F00C7F34341CD
:1032200000EBC000022904EB800606F5157602D0FB
:10323000062912D01BE047F6F070074217D0C7F3FB
:103240000A12F1681746284606F0F0FB7169F0682B
:10325000394471613844F06009E000990822284639
:1032600006F0E4FB7069C7F30A1108447061206836
:10327000816941F010018161206806F0D3FB0003F1
:103280004FF0080B4FF0000A4FF001097CD5206881
:10329000002606F0A6FB074674E0F80770D0206809
:1032A000F1B206F0B7FB8046C00707D005EB461128
:1032B000C1F8089B3146204603F042FC5FEA0870E3
:1032C00024D505EB4611C1F808BBFE49206800E093
:1032D00048E2026C00EB461001928A42D0F8081BCB
:1032E00005D9090403D54FF40041C0F8081B204656
:1032F00000F029FBF3480199814207D9A079012800
:1033000004D120680121009A06F0E8F85FEAC8605D
:1033100004D505EB46111020C1F8080B5FEA887050
:103320001DD56869000605D5D5F8040840F480610C
:10333000C5F8041806EBC60004EB800090F857129D
:1033400000F51570012905D180F803A02046F1B2DF
:1033500000F00EFA05EB46110220C1F8080B5FEAF7
:10336000886004D505EB46112020C1F8080B5FEA00
:10337000884005D505EB46114FF40050C1F8080B05
:103380007F08761C002F88D1206806F04BFB400395
:103390006ED5206806F01EFB0026074666E0F8079B
:1033A00062D02068F1B206F023FB8046C00723D02C
:1033B000D5F8342806F00F0C05EB461309FA0CF08B
:1033C0008243C5F83428C3F80899A07901280FD1A1
:1033D00006EBC60004EB8000D0E90721114401622E
:1033E00036B9606A20B920680121009A06F076F8A3
:1033F0002046F1B2FFF7C4FD5FEA087003D505EB84
:103400004611C1F808B95FEAC86004D505EB46115A
:103410001020C1F808095FEA486004D505EB4611A1
:103420004020C1F808095FEA887016D53146284661
:1034300006F0A1FA06EBC60004EB8000C17D143053
:10344000012905D180F803A02046F1B200F08CF9E3
:1034500005EB46110220C1F808095FEA086003D5B0
:103460003146204603F0D2FB7F08761C002F96D110
:10347000206806F0D7FA002811DAD5F8040820F001
:103480000101C5F8041894F8CC0401283BD020466B
:1034900000F03EFA2068416901F000414161206876
:1034A00006F0C0FA00050BD5D5F80808C00702D011
:1034B000204600F071FA2068416901F40061416121
:1034C000206806F0AFFA00010AD52068416901F0D2
:1034D0000061416194F8CC04E0B1204600F05CFA50
:1034E000206806F09FFAC00473D5D5F8040820F0D0
:1034F0000101C5F804182068102106F03CFA0021EB
:103500004FF67F322DE00021204684F8CCA4FFF74F
:103510000BFDBFE784F8CC942068406D0121C0F317
:103520008300C4F8D0042046FFF7FEFCD8E700BFB4
:1035300005EB4110C0F80829D0F8003923F4001336
:10354000C0F80039C0F8082BD0F8003B23F4001372
:10355000C0F8003BD0F8003B43F00063C0F8003BEC
:10356000491C20798842E3D8D5F81C08294640F048
:103570000110C5F81C08E07B68B1D1F8840840F060
:103580000B01C5F88418D5F8440840F00B01284613
:10359000C5F844180DE0D5F8140842F22B01084391
:1035A000C5F81408D5F8100840F00B012846C5F8F6
:1035B0001018D0F8000820F4FE61C5F80018A179B1
:1035C0002068009A05F08AFF2068416901F4805163
:1035D0004161206806F026FA800415D5206805F0C0
:1035E000BDFD206806F0E5F9E07101F0A7F9E27988
:1035F0000146206806F07AFA204600F073F9206848
:10360000416901F400514161206806F00BFA00079E
:1036100007D5204600F080F92068416901F00801D3
:103620004161206806F0FEF900061FD5A969012056
:1036300021F08001A96116E000EBC00104EB8101DB
:1036400091F8571201290DD105EB4011D1F8002B4B
:1036500042F00062C1F8002BD1F8002B42F080420A
:10366000C1F8002B401C21798142E5D8206806F082
:10367000D9F9C0021FD501264F4614E006EBC6015A
:1036800005EB461004EB8102D0F80009117E0129F8
:1036900008D1002806DAF0B2D77540F08001204644
:1036A000FFF785FC761C2079B042E7D82068416995
:1036B00001F480114161206806F0B4F9800234D52C
:1036C000012001E00A30544F4A4626E000EBC003D7
:1036D00005EB401104EB8306D1F8001B96F8583235
:1036E000012B19D1002917DA94F8D434C1F3004121
:1036F00003F001038B420FD186F85722A96941F0EC
:103700008003AB616969090606D4D5F8040840F462
:103710000070C5F8040803E0401C21798142D5D827
:103720002168486900F400104861206806F07AF9C1
:10373000400007D52046FFF71FFC2068416901F0D3
:1037400080414161206806F06DF940070AD5206884
:103750004568680702D52046FFF725FC20684168C8
:1037600029434160BDE8FC9FD0F8E00405F0A5B90D
:10377000D0F8E00405F0B5B9F8B5040004D094F829
:103780009504002510B106E00120F8BD204684F81C
:10379000945400F057F8032084F89504206805F04D
:1037A00097FE207C8DF8000094E80F0005F0E4FC03
:1037B0000226B0BB2068002106F058F988BB002023
:1037C00001270CE000EBC001421C04EB81014F75A6
:1037D0000D76CD610D624D620875C885D0B2217934
:1037E0008142EFD8002011E000EBC001421C04EB45
:1037F000810181F8555281F85852C1F85C52C1F8E4
:103800006052C1F8645281F85402D0B221798142E9
:10381000EAD8207C8DF8000094E80F0005F0A2FDA6
:1038200010B184F89564AFE7207B657484F89574D3
:10383000012802D12046FFF763FB206805F084FDD4
:103840000020F8BD10B5B6B00446142130A8FCF72E
:10385000E3FFC0216846FCF7DFFF1F49206888426C
:1038600038D100204FF480214FF440122292CDE94C
:103870000010684600F030FA08B1FEF780FE00F054
:10388000CDF81648016841F00101016000680A2383
:10389000022200F00100359000204FF4C051309119
:1038A00030A9CDE93120CDE933030D48FEF78AFE7A
:1038B0000A480838016841F0006101600068002290
:1038C000052100F0006035906520FFF7E7FA6520DC
:1038D000FFF7D6FA36B010BD00000840E0440258A9
:1038E0000000025870B50446C079012570B1022865
:1038F00001D0FEF744FED4F8E004294605F061F952
:10390000D4F8E004BDE8704005F014B90025F2E7F2
:10391000D0F8E00405F03EB9D0F8E00405F044B971
:1039200010B5044690F8940401280AD0012061746F
:1039300084F89404206806F0C8F8002084F8940401
:1039400010BD022010BDD0F8E02400F29C411046CA
:1039500005F043B910B590F89414044600680129A5
:1039600009D0012184F89414C168490609D5617B06
:10397000012902D005E0022010BD816B41F48031A5
:103980008163206805F0D5FF206805F0CFFC00209A
:1039900084F8940410BD000010B50446D0F8E0048B
:1039A00005F05DF92068D0F8001E41F00101C0F873
:1039B000001EE07A002804D00248016841F00601A8
:1039C000016010BD10ED00E0134970B50A68D243E4
:1039D000520705D5096801F00701814213D118E0AB
:1039E0000A6822F0070202430A60FEF711FF0A4D3F
:1039F0004FF47A760446083D07E000BFFEF708FF63
:103A0000001BB04201D9012070BD2868C04380046A
:103A1000F4D4002070BD00000C4802580248016830
:103A200041F08071016070470C48025810B500F0F9
:103A300085FF05490968054AC1F30211515C01F08F
:103A40001F01C84010BD000020440258E8C2000811
:103A5000494930B5484C0B1D0A68143409681D6883
:103A6000246802F00303C5F30012C1F30531C4F367
:103A7000CC04002914FB02F200EE102AF8EE400AF2
:103A800075D03F4A9FED3D1AB7EE000A6BB1DFEDEE
:103A90003D1A012B01D0022B64D002EE101A1168DE
:103AA000F8EE422A81EEA22A21E0334C283C23681A
:103AB0009B0612D5344B246801EE901A1168C4F3AA
:103AC000C104F8EE612AE34001EE903AC1F3080127
:103AD000F8EE611A81EEA22A0BE001EE901ADFEDFA
:103AE0002B2A00BFF8EE611A116882EEA12AC1F3F9
:103AF000080101EE901A1168F8EE611A40EE811A81
:103B000071EE800A62EE200AC1F3462101EE101A1E
:103B1000B8EE411A31EE001AC0EE811ABCEEE11A7D
:103B200080ED001A1168C1F3064101EE101AB8EEDB
:103B3000411A31EE001AC0EE811ABCEEE11A80ED96
:103B4000011A1168C1F3066101EE101AB8EE411AAC
:103B500031EE000A80EE801ABCEEC10A80ED020A46
:103B600030BD04E001EE901ADFED092ABAE700212A
:103B7000016041608160F3E7284402580000003989
:103B8000384402580024744A0090D0030024744C36
:103B900020BCBE4B494930B5484C0B1D0A681C344B
:103BA00009681D68246802F00303C5F30022C1F30D
:103BB0000551C4F3CC04002914FB02F200EE102AD4
:103BC000F8EE400A75D03F4A9FED3D1AB7EE000A65
:103BD0006BB1DFED3D1A012B01D0022B64D002EE58
:103BE000101A1168F8EE422A81EEA22A21E0334C25
:103BF000283C23689B0612D5344B246801EE901AAA
:103C00001168C4F3C104F8EE612AE34001EE903A72
:103C1000C1F30801F8EE611A81EEA22A0BE001EE71
:103C2000901ADFED2B2A00BFF8EE611A116882EEC0
:103C3000A12AC1F3080101EE901A1168F8EE611A89
:103C400040EE811A71EE800A62EE200AC1F346212D
:103C500001EE101AB8EE411A31EE001AC0EE811AC8
:103C6000BCEEE11A80ED001A1168C1F3064101EEC5
:103C7000101AB8EE411A31EE001AC0EE811ABCEEED
:103C8000E11A80ED011A1168C1F3066101EE101A04
:103C9000B8EE411A31EE000A80EE801ABCEEC10A7D
:103CA00080ED020A30BD04E001EE901ADFED092A32
:103CB000BAE70021016041608160F3E728440258BF
:103CC00000000039404402580024744A0090D00398
:103CD0000024744C20BCBE4B2DE9FE4F0546DFF896
:103CE000E48350F8081B0024F64FC943019005F106
:103CF0002800264608F12408009008011DD4A86E6B
:103D000050B1B0F5801F0CD0B0F5001F0ED0B0F54B
:103D1000401F1ED001240FE0386840F400303860A6
:103D200017E00198022102F0C3FF03E0009802218E
:103D300003F04EF804000CD026462888C043C00586
:103D400023D4A86D05281ED2DFE800F00C11161B45
:103D50001B00AA6ED8F8001021F440111143C8F8D6
:103D60000010EAE7386840F40030386009E0019854
:103D7000002102F09DFF03E00098002103F028F8E5
:103D8000044674B100E0012426462888C04380051B
:103D900028D4E86D80281ED00CDC90B140280ED1CC
:103DA00014E0AA6DD8F8001021F007011143C8F8FB
:103DB0000010EAE7C02813D0B0F5807F10D00124AE
:103DC0000FE0386840F40030386009E001980021C5
:103DD00002F06EFF03E00098002102F0F9FF0446B4
:103DE0009CB126462888DFF8DC92C04309F12C09F3
:103DF00040052CD4D5F8A800B0F5800F20D00DDCFC
:103E0000A0B1B0F5001F0FD115E0EA6DD8F8001091
:103E100021F4E0711143C8F80010E3E7B0F5C00FDA
:103E200013D0B0F5000F10D001240FE0386840F433
:103E30000030386009E00198002102F039FF03E00A
:103E40000098002102F0C4FF04467CB12646288871
:103E5000C04300052DD4D5F8AC00B0F1007F21D0CF
:103E60000EDCA8B1B0F1807F10D116E0D5F8A82003
:103E7000D9F8001021F460011143C9F80010E6E7F9
:103E8000B0F1407F13D0B0F1806F10D001240FE06B
:103E9000386840F40030386009E00198002102F0F1
:103EA00007FF03E00098002102F092FF044674B17E
:103EB00026462868C04380011FD4E86CD8B110287A
:103EC0000FD0202812D0302815D0012414E0D5F8C6
:103ED000AC20D9F8001021F0E0611143C9F80010BE
:103EE000E7E7386840F40030386004E001980221C8
:103EF00002F0DEFE044674B126462888C043C004A2
:103F00002BD4286EB0F5005F20D00DDCA0B1B0F549
:103F1000805F0FD115E06B48EA6C2030016821F01A
:103F2000300111430160E8E7B0F5405F13D0B0F510
:103F3000804F10D001240FE0386840F40030386022
:103F400009E00198002102F0B3FE03E0009800218F
:103F500002F03EFF04468CB126462888C043800408
:103F600029D4686EB0F5403F23D010DC08B3B0F51B
:103F7000803F14D0B0F5003F0FD115E02A6ED8F87D
:103F8000001021F4E0411143C8F80010E5E7B0F556
:103F9000802F0ED0B0F5A02F0BD001240AE001989D
:103FA000012102F085FE03E00098012102F010FFDC
:103FB000044694B126462888C04340042AD4D5F844
:103FC000B000B0F1405F23D010DC08B3B0F1805FE7
:103FD00014D0B0F1005F0FD115E06A6ED8F8001070
:103FE00021F4E0211143C8F80010E4E7B0F1804F5C
:103FF0000ED0B0F1A04F0BD001240AE001980121AE
:1040000002F056FE03E00098012102F0E1FE0446B2
:1040100074B126462888C04300041FD4286FD8B145
:10402000B0F1805F0ED0B0F1005F10D0012414E039
:10403000D5F8B020D9F8001021F0E0411143C9F8BB
:104040000010E7E7386840F40030386004E0019879
:10405000012102F02DFE044674B126462868C043B3
:10406000C0011ED4A86CD0B101280ED0022811D0F6
:10407000032814D0012413E02A6FD8F8001021F08F
:1040800040511143C8F80010E8E7386840F40030A8
:10409000386004E00198022102F00AFE0446ACB147
:1040A00026462868DFF81CB0C043ABF11C0B400269
:1040B00052D40548016841F480710160FEF7A8FB05
:1040C000824611E02C44025800480258FA48AA6C73
:1040D000016821F0030111430160E2E7FEF798FB5C
:1040E000A0EB0A00642835D8F4480068C005F5D56F
:1040F0008CBBDFF8C4A3B5F8B4100AF1240ADAF8CF
:10410000000001F4407100F44070884211D0DAF8E8
:104110000010DAF8002021F4407142F48032CAF82D
:104120000020DAF8002022F48032CAF80020CAF811
:104130000010D5F8B400B0F5807F1AD1FEF768FB07
:10414000029012E0FEF764FB0299411A41F28830B6
:1041500081420AD9032426462878DFF85CA3C043AD
:104160000AF1080AC00721D03CE0DAF80000800715
:10417000E8D5D5F8B410C1F30120032858460DD076
:10418000016821F47C510160B5F8B420DAF8001020
:10419000C2F30B021143CAF80010DDE7C84A0368F6
:1041A00002EA111223F47C511143ECE7E86F18285E
:1041B00016D005DCA0B1082808D0102804D10AE0E8
:1041C00020280DD028280BD001240AE001980121D5
:1041D00002F06EFD03E00098012102F0F9FD0446B3
:1041E00064B126462878C04380071ED4A86F0628ED
:1041F00019D2DFE800F0160C11161616EA6FDAF87D
:10420000001021F038011143CAF80010EAE70198C4
:10421000012102F04DFD03E00098012102F0D8FDDC
:1042200004467CB100E0012426462878C0434007BC
:104230001FD4D5F89400062819D2DFE800F0160C38
:1042400011161616AA6FDAF8001021F007011143B3
:10425000CAF80010E9E70198012102F029FD03E006
:104260000098012102F0B4FD0446A4B100E001244D
:1042700026462878C04380062BD4D5F89000B0F1AC
:10428000405F24D011DC10B3B0F1805F15D0B0F1E5
:10429000005F10D116E0D5F89420D9F8001021F075
:1042A00007011143C9F80010E3E7B0F1804F0ED0C9
:1042B000B0F1A04F0BD001240AE00198002102F0D8
:1042C000F7FC03E00098022102F082FD044694B15D
:1042D00026462878C04340062BD4D5F89C00B0F57C
:1042E000406F24D011DC10B3B0F5806F15D0B0F55D
:1042F000006F10D116E0D5F89020DAF8001021F008
:10430000E0411143CAF80010E3E7B0F5805F0ED03A
:10431000B0F5A05F0BD001240AE00198002102F063
:10432000C7FC03E00098022102F052FD044694B15C
:1043300026462878C04300062BD4D5F8A000B0F557
:10434000C04F24D011DC10B3B0F5005F15D0B0F52C
:10435000804F10D116E0D5F89C20D9F8001021F438
:10436000E0511143C9F80010E3E7B0F5004F0ED05B
:10437000B0F5204F0BD001240AE00198002102F093
:1043800097FC03E00098022102F022FD044654B19C
:1043900026462878C04300071ED4D5F88400B0F51F
:1043A000805F0AD00FE0D5F8A020D9F8001021F4E2
:1043B00060411143C9F80010EBE70098022102F0B8
:1043C00007FD00B10126D5F88420DAF8001021F4A9
:1043D00040511143CAF800102878C043C00613D4D6
:1043E000D5F89800B0F5807F05D10098022102F041
:1043F000EFFC00B10126D5F89820D9F8001021F47F
:1044000040711143C9F800102868C043000316D456
:10441000D5F8A40038B1B0F5803F09D0B0F5003F21
:104420000BD001240AE00198002102F041FC03E0D6
:104430000098022102F0CCFC04468CB12646286884
:10444000C043400322D4D5F88800B0F5801F11D0B6
:10445000B0F5001F13D0B0F5401F15D0012414E0B3
:10446000D5F8A420D9F8001021F440311143C9F83F
:104470000010E4E7386840F40030386004E0009849
:10448000012102F0A5FC04465CB126462868C04321
:10449000C00323D4286DA8B1B0F5803F17D0012404
:1044A0001BE0D5F88820DAF8001021F44011114300
:1044B000CAF80010EAE700004C44025800480258CD
:1044C000CFFFFF00386840F40030386004E0019806
:1044D000022102F0EDFB0446E4B126462868C04301
:1044E000800005D40098022102F072FC00B1012680
:1044F0002868C04380031BD4D5F88000B0B1B0F564
:10450000807F0FD0B0F5007F10D0B0F5407F0DD088
:1045100001240CE05A482A6D016821F480311143CE
:104520000160DBE7386840F400303860ECB32646C1
:104530002868C043C00207D46A6FD8F8001021F081
:1045400000411143C8F800102868C043C00008D4D7
:10455000D5F8B820DBF8001021F480411143CBF8E6
:1045600000102868C043800207D4EA6ED8F8001013
:1045700021F080711143C8F800102868C043400042
:104580000CD4DBF8001021F40041CBF80010DBF86C
:104590000010D5F8BC201143CBF800102868C043A8
:1045A00008D437486A6D016800E018E021F04051F6
:1045B000114301602868C043000208D4D5F88C205C
:1045C000DAF8001021F440011143CAF800102879EC
:1045D0000024C04300F0010020430AD00FE0D5F8CA
:1045E0008020DAF8001021F440711143CAF800105D
:1045F0009EE70198002102F05BFB00B10646287996
:10460000C04300F00200204305D10198012102F0CF
:104610004FFB00B106462879C04300F00400204358
:1046200005D10198022102F043FB00B1064628792A
:10463000C04300F00800204305D10098002102F09B
:10464000C7FB00B106462879C04300F010002043A4
:1046500005D10098012102F0BBFB00B10646287984
:10466000C04300F02000044304D10098022102F06E
:10467000AFFB00B916B10120BDE8FE8F0020FBE7BB
:104680004C4402582DE9F05F04000F467ED0DFF85D
:104690003882D8F8000000F00F00B8420CD2D8F8E9
:1046A000001021F00F013943C8F80010D8F80000BD
:1046B00000F00F00B84269D12078844D40070AD538
:1046C0002069296801F07001884204D9296821F025
:1046D00070010143296020787C4E361D00070AD501
:1046E0006069316801F07001884204D9316821F0B5
:1046F0007001014331602078C0060AD5A069316895
:1047000001F4E061884204D9316821F4E061014399
:1047100031602078DFF8B4B180060BF1080B0CD5BE
:10472000E1695846DBF8002002F07002914204D99A
:10473000026822F070020A430260207880070AD5DE
:10474000E068296801F00F01884204D9296821F046
:104750000F01014329602078C0073ED05B49A26861
:104760002868183920F470601043286060680228B7
:1047700018D0032819D00968012819D04907002941
:104780004ADADFF848A1AAF1080A00E044E0DAF8C2
:10479000002022F007020243CAF80020FEF738F892
:1047A000814612E009688903E9E709688901E6E7BB
:1047B000C905E4E7FEF72CF8A0EB090141F28830C7
:1047C000814202D90320BDE8F09F6168DAF8000059
:1047D00000F03800B0EBC10FECD1207880070AD58B
:1047E000E068296801F00F01884204D2296821F0AD
:1047F0000F0101432960D8F80010404601F00F0175
:10480000B9420BD9016821F00F01394301600068FA
:1048100000F00F00B84201D00120D4E72078400713
:104820000AD52069296801F07001884204D22968FC
:1048300021F0700101432960207800070AD56069E2
:10484000316801F07001884204D2316821F07001B2
:10485000014331602078C0060AD5A069316801F4AF
:10486000E061884204D2316821F4E06101433160A3
:10487000207880060CD5E1695846DBF8002002F06C
:104880007002914204D2026822F070020A43026070
:1048900000F09AF80E492A682B68C2F3032203F04D
:1048A0000F038A5CC95C02F01F0201F01F01D040B7
:1048B000084A20FA01F111600749086007480068BA
:1048C000BDE8F05FFEF736BA0020005218440258E7
:1048D000E8C200082C000024280000242000002446
:1048E00070B5144C3F220260124A24680832131D2E
:1048F000114D04F00704446016681C1D06F4706630
:104900008660166806F00F06C660126802F0700234
:1049100002611A6802F0700242611A6802F4E062F1
:104920008261226802F07002C261286800F00F0004
:10493000086070BD104402580020005230B500F0ED
:1049400043F80B4A0B490C4B15681468C5F3032256
:1049500004F00F048A5C095D02F01F0201F01F01E0
:10496000D040064A20FA01F119601060084630BDB7
:1049700018440258E8C200082C0000242800002433
:1049800000B5FFF7DBFF05490968054AC1F30211CD
:10499000515C01F01F01C84000BD00001C440258DA
:1049A000E8C2000800B5FFF7C9FF05490968054AD4
:1049B000C1F30221515C01F01F01C84000BD00009D
:1049C0001C440258E8C20008454970B545480968CA
:1049D000434B103B11F0380208D00111082A03D0D4
:1049E000102A0BD0182A0BD0084670BD196889060A
:1049F000FBD51968C1F3C101C84070BD3A4870BD0C
:104A00003749374D18310C1D24350A680968266866
:104A10002D6802F0030406F00102C1F30511C5F38D
:104A2000CC0515FB02F200EE102AB8EE400AE9B3FD
:104A30002F4ADFED2E0AB7EE001A6CB1DFED2D1A0A
:104A4000012C01D0022C43D002EE101A1068F8EEAF
:104A5000422A81EEA22A1EE01C68A40611D51B681A
:104A600001EE901A1168C3F3C103F8EE612AD84031
:104A700001EE900AC1F30800F8EE611A81EEA22A55
:104A80000BE001EE901ADFED1C2A00BFF8EE611A70
:104A9000106882EEA12AC0F3080001EE900AF8EE39
:104AA000611A40EE201A31EE810A00E015E022EE94
:104AB000000A1068C0F34620401C00EE900AF8EE91
:104AC000600A80EE201ABCEEC10A10EE100A70BD1A
:104AD00001EE901ADFED092AD8E7002070BD000032
:104AE000104402580090D00340787D010000003946
:104AF000304402580024744A0024744C20BCBE4B3D
:104B00002DE9F05F04007DD0FF4F2078FE4D18376F
:104B1000DFF8F493103DC00748D0D9F80000396899
:104B200000F03800102815D0182803D101F0030038
:104B300002280FD06068B0F5803F12D010B1B0F5F8
:104B4000A02F18D0286820F480302860286820F42E
:104B5000802009E02868800328D560680028D2D02A
:104B600024E0286840F480302860606888B1FDF750
:104B70004FFE064609E0286840F480202860F0E7F0
:104B8000FDF746FE801B64286FD828688003F7D5A0
:104B90000CE0FDF73DFE064605E000BFFDF738FEE0
:104BA000801B6428F0D828688003F7D4207841F26D
:104BB0000308D54E0C3E800769D5D9F80000396846
:104BC00010F038000ED0182801D188070AD0E0680C
:104BD00090B3296821F0190101432960FDF718FEFF
:104BE000824631E02868400702D5E06800288AD074
:104BF000E168286820F0190008432860FDF708FEE6
:104C0000824607E0DFE000BFFDF702FEA0EB0A00EE
:104C10000228B9D828684007F6D500BFFDF7F2FD95
:104C200040451BD82069402812D0316821F47C31DE
:104C300041EA003030602AE018E000BFFDF7E8FDEF
:104C4000A0EB0A0002289FD828684007F6D5E5E7C0
:104C5000306820F47C3040F40030EBE7207C316891
:104C600021F0FE4141EA0060E4E70DE1286820F010
:104C700001002860FDF7CCFD824605E0FDF7C8FD88
:104C8000A0EB0A0002288DD828684007F6D42078C7
:104C9000C0065DD5D9F80000DFF86CB2396800F0C5
:104CA0003800ABF1040B082810D0182803D101F00C
:104CB000030001280AD0E0690028286838D040F0B5
:104CC00080002860FDF7A4FD824623E02868C00527
:104CD00023D5E069802876D11FE0206A202821D0E2
:104CE000316821F0F84141EA8060306030E000BF77
:104CF00094F82010DBF8002022F07C5242EA016197
:104D0000CBF8001024E000BFFDF782FDA0EB0A0005
:104D1000022898D82868C005F6D5FDF773FD4045F0
:104D2000E6D8DAE7306820F0F84040F08040DCE771
:104D300020F080002860FDF76BFD064605E000BF0F
:104D4000FDF766FD801B02289DD82868C005F7D4B2
:104D50002078000729D56C486169643000298046B5
:104D6000016811D041F001010160FDF751FD0646D7
:104D700005E000BFFDF74CFD801B0228C9D8D8F81C
:104D800000008007F6D510E021F001010160FDF779
:104D90003FFD064605E000BFFDF73AFD801B0228F7
:104DA00072D8D8F800008007F6D42078800623D582
:104DB000A0690028286810D040F480502860FDF7D2
:104DC00027FD064605E036E1FDF722FD801B02289F
:104DD0005AD828688004F7D50EE020F48050286067
:104DE000FDF716FD064604E0FDF712FD801B0228C4
:104DF0004AD828688004F7D4207840074FD5DFF8D8
:104E00000C81D8F8001041F48071C8F80010FDF74B
:104E1000FFFC064605E000BFFDF7FAFC801B642896
:104E200032D8D8F80000C005F6D5374EA0686036F5
:104E300001280AD008B1052813D0306820F00100FD
:104E40003060306820F0040002E0306840F001007B
:104E50003060A06841F2883A90B1FDF7D9FC8046F5
:104E60000AE0306840F004003060EEE7FDF7D0FC67
:104E7000A0EB0801514507D830688007F6D50EE051
:104E8000FDF7C6FC804607E084E000BFFDF7C0FCEC
:104E9000A0EB080151457DD830688007F6D4606AE0
:104EA000B0B3DFF86480D9F8001008F120084FF69D
:104EB000F87B08F10409C1F3C2010329A8F1040A2F
:104EC00069D00228286820F08070286003D0FDF7A0
:104ED0009FFC044684E0FDF79BFC064605E000BF0E
:104EE000FDF796FC801B022877D828688001F7D44C
:104EF000E26A40F2F331386854F8283F884340EAC8
:104F000002101843386004E0104402580048025868
:104F1000B5E0217B434622894FF4FE0C208A4FF0F6
:104F2000FE474902267D521E401EA1F50071C2F3C4
:104F300008088AB2761E0CEA004042EA08020243E0
:104F4000504607EA06610A431A60DAF8002022F0A8
:104F50000102CAF80020D9F80020266A22EA0B02D2
:104F600042EAC602C9F80020DAF80010A26921F06E
:104F70000C011143CAF800100168E26921F0020136
:104F800011430160016841F480310160016841F41E
:104F9000003101E021E027E00160016841F4802157
:104FA0000160016841F001010160286840F08070F3
:104FB0002860FDF72DFC044605E000BFFDF728FC46
:104FC000001B022809D828688001F7D557E000BFE8
:104FD000FDF71EFC001B022802D90320BDE8F09F4C
:104FE00028688001F4D44AE039680128D8F8000024
:104FF00021D0A26A01F0030393421CD1E26AC1F3FB
:1050000005118A4217D1216BC0F30802491E8A425A
:1050100011D1616BC0F34622491E91420BD1A16BA5
:10502000C0F30642491E914205D1E16BC0F3066010
:10503000491E814201D00120D0E7A16C4E46D9F82B
:105040000000C0F3CC00814219D0DAF800005546C8
:1050500020F00100CAF80000FDF7DAFB4FEA000774
:10506000FDF7D6FBB842FBD0A26C306820EA0B00FB
:1050700040EAC2003060286840F00100286000204B
:10508000ACE700002DE9F047040029D0594A4FF061
:1050900000092068584B594D9042C4F8289006D01A
:1050A000984204D0A84202D0E1680F2918D8E168DC
:1050B0004FF0010AE76B0831C9080AEB5716714334
:1050C000904205D0984203D0A84201D0082907D8C1
:1050D000904203D0984201D0A84204D1102902D9AD
:1050E0000120BDE8F08794F8810020B9204684F8BB
:1050F000809000F085F8022084F881002068016823
:1051000021F0010101602068A1698268B1F1806F1E
:1051100002F4F81110D16268B2F5800F01D01AB113
:105120000AE0A26B22B107E0A26BB2F1805F03D16B
:10513000026842F4805202606068400209D5E0686B
:10514000072806D32068236D026822F480721A4370
:1051500003E02068026822F480720260A66AE069B7
:10516000E26B25683043E3680A4310431843A860A4
:10517000D4E90D02D4E90581636A25691843D4F89E
:1051800020C00A43266810432843A56DD4E9017264
:10519000D4E9123140EA080040EA0C0038430843E1
:1051A000104318432843F060606868B9206881683C
:1051B00021F4C05141F4006181602068816821F4CC
:1051C000C06141F4806181602068016D21F00101BE
:1051D00001656068400206D52068626DC16821F0F3
:1051E00000411143C160C4F8849084F881A000207C
:1051F00077E700000030014000380040003C0040EC
:1052000010B5B6B00446142130A8FBF705FBC02149
:105210006846FBF701FB1849206888422AD18114AF
:10522000002018900446CDE900106846FEF754FDB2
:1052300008B1FDF7A4F91148016841F480510160FB
:10524000006800F4805035900C481038016841F037
:1052500001010160006830AB022100F001003590CF
:10526000E020052283E81300054830A9CDE9334248
:10527000FDF7A8F936B010BD00300140F0440258E7
:10528000000002582DE9F84F044600689946174679
:1052900000F1200B8A46FDF7BBFA064694F8810020
:1052A000012839D1BAF1000F7ED0002FFCD094F83C
:1052B0008000012830D0A26800254FF0010884F852
:1052C0008080032184F88110C4F88450C4F85CA065
:1052D0006566A4F86850656725672C34B2F5C02F61
:1052E000A786E786E58754F82C0D18D0C16821F40D
:1052F000C02141F40031C160206841686FF30F01A3
:10530000394341602068016841F001010160606833
:10531000B0F5800F08D00CE00220BDE8F88F0168DE
:1053200041F400610160E7E72068016841F4007121
:105330000160E0680F281CD820E0206841698907D7
:105340000BD5E16D09680162E06D001DE065B4F800
:105350006200401EA4F862000BE0FDF759FA811BC1
:10536000494503D3B9F1FF3F03D09DE0B9F1000FE8
:1053700032D0B4F862000028DFD179E007282FD8B6
:1053800072E02068416989071ED5B4F862100129CE
:105390000DD9E16B59B1E16D09680162E06D001D45
:1053A000E065B4F8620000E07CE0801E09E0E06D9A
:1053B0000188ABF80010E06D801CE065B4F8620075
:1053C000401EA4F862000BE0FDF722FA811B49455C
:1053D00003D3B9F1FF3F03D066E0B9F1000F63D00A
:1053E000B4F862000028CCD142E020684169890706
:1053F0002ED5B4F8621003290CD9E16B402909D9E4
:10540000E16D09680162E06D001DE065B4F86200BD
:10541000001F1AE0B4F8621001290CD9E16B51B1F8
:10542000E06D0188ABF80010E06D801CE065B4F819
:105430006200801E09E0E16D097880F82010E06DBF
:10544000401CE065B4F86200401EA4F862000BE066
:10545000FDF7DEF9811B494503D3B9F1FF3F03D0C6
:1054600022E0B9F1000F1FD0B4F862000028BCD1CF
:1054700000224B4608212046009601F097FD28B1F6
:10548000D4F8840040F02000C4F88400204601F0E5
:105490002FFD84F88180D4F8840084F8805000289F
:1054A0003FF43BAF012038E7204601F021FDD4F85E
:1054B000841084F8805041F48071C4F8841084F81A
:1054C0008180032029E700002DE9FF4F0446C06BCF
:1054D00017461D4683B042092068521C00F1200186
:1054E00030301FFA82FBCDE90001FDF791F98246C9
:1054F00094F881002E46012835D1049800287CD0EC
:10550000002FFCD0002DFAD094F8800001282AD07A
:105510004FF0010984F8809005224FF0000884F8CC
:105520008120C4F884806766A4F86A50A4F86850A3
:105530000499E165A4F86250A4F86050C4F8708042
:10554000C4F874802068C16821F4C021C160AD49ED
:105550002068884205D0AC49884202D0AB498842D5
:1055600005D1102704E0022007B0BDE8F08F08271E
:1055700041686FF30F01294341602068016841F0E1
:10558000010101606068B0F5800F04D120680168F6
:1055900041F400710160E0680F284CD9BF0838E081
:1055A00020684169890710D57EB1F119A9420CD94B
:1055B000E16D09680162E06D001DE065B4F862000C
:1055C000401EA4F86200B4F862602068416905B327
:1055D0004269D20703D15D4510D209040ED5006B94
:1055E000616E0860606E001D6066B4F86A00401E5F
:1055F000A4F86A00B4F86A500BE0F0E0FDF708F98F
:10560000A0EB0A011098814202D3401C01D004E0B3
:1056100018B156EA0500C3D1C8E0204601F068FC85
:10562000D4F8840084F8808040F48070C4F884004A
:1056300084F88190E2E007287BD97F084EE020685B
:105640004069800711D586B1F019A8420DD9E06DE7
:10565000018801980180E06D801CE065B4F862006B
:10566000401EA4F86200B4F86260216848692DB356
:105670004969C9070AD000980088616E0880606E89
:10568000801C6066B4F86A00401E13E05D4516D2C7
:10569000010414D500980088616E0880606E801C3B
:1056A0006066009909880180606E801C6066B4F8AD
:1056B0006A00801EA4F86A00B4F86A500EE0012D5A
:1056C00001D18004D7D4FDF7A3F8A0EB0A0110980C
:1056D000814202D3401C01D083E058B356EA050052
:1056E000ADD163E020684169890711D586B1F11910
:1056F000A9420DD9E16D097880F82010E06D401CB9
:10570000E065B4F86200401EA4F86200B4F862607C
:10571000206841696DB14269D2070CD090F8300021
:10572000616E0870606E401C6066B4F86A00401ECE
:1057300024E038E055E05D4525D20A0423D590F8F1
:105740003000616E0870606E401C6066216891F8E0
:1057500030100170606E401C6066216891F8301056
:105760000170606E401C6066216891F83010017015
:10577000606E401C6066B4F86A00001FA4F86A00FE
:10578000B4F86A500FE0042D02D211F4C04FC5D115
:10579000FDF73EF8A0EB0A011098814202D3401CAD
:1057A00001D01EE0E8B156EA05009BD1109B002213
:1057B00008212046CDF800A001F0F8FB28B1D4F86C
:1057C000840040F02000C4F88400204601F090FBE3
:1057D00084F88190D4F8841084F8808081B101200D
:1057E000C2E6204601F084FBD4F8842084F880804F
:1057F00042F48072C4F8842084F881900320B3E6D8
:105800000020B1E60030014000380040003C00407C
:105810007047704770470000F0B590F83C20012AAF
:105820003BD01F4E012480F83C40022280F83D20EE
:1058300002681C4D5368B242D2F808C001D0AA4297
:1058400003D14F6823F470033B430F6823F07003C8
:105850001F4357600268B24213D0B2F1804F10D09C
:10586000114B9A420DD0114B9A420AD0104B9A42DA
:1058700007D0AA4205D00F4B9A4202D00E4B9A4253
:1058800004D189682CF0800319439160002180F8CD
:105890003D4080F83C100846F0BD0220F0BD0000FD
:1058A00000000140000401400004004000080040E6
:1058B000000C0040001800400040014010B50400FA
:1058C00003D094F83D0010B107E0012010BD002086
:1058D00084F83C00204600F023F8022084F83D00C4
:1058E0002068211D01F016FE012084F8480084F88C
:1058F0003E0084F83F0084F8400084F8410084F8BA
:10590000420084F8430084F8440084F8450084F899
:10591000460084F8470084F83D00002010BD0000D8
:1059200008B500680649884208D10648016841F078
:1059300002010160006800F00200009008BD000054
:1059400000040040E844025890F83D10012901D0BD
:1059500001207047174A022180F83D100168CB688A
:1059600043F00103CB600068904214D0B0F1804F47
:1059700011D0114988420ED0104988420BD01049ED
:10598000884208D00F49884205D00F49884202D08A
:105990000E49884207D181680D4A1140062906D078
:1059A000B1F5803F03D0016841F0010101600020A2
:1059B0007047000000000140000400400008004063
:1059C000000C00400004014000180040004001406D
:1059D0000700010070B5044690F83C00002501283E
:1059E00014D03A4B012684F83C60022084F83D0034
:1059F00022689068184020F47F4090600868702802
:105A00002FD010DC10F00F0F03D022E04FF0020077
:105A100070BD4FEA2012072A1BD2DFE802F0535371
:105A200053534B394100B0F1101F4BD009DCB0F596
:105A3000805F0FD0B0F5005F1ED0B0F5801F08D199
:105A400040E0A0F5801120393CD010293AD020291F
:105A500038D0012584F83D60002084F83C002846B9
:105A600070BD4A682068D1E9021301F0C6FD2068C4
:105A7000816841F0770109E04A682068D1E90213A2
:105A800001F0BBFD2068816841F480418160E1E75D
:105A9000CA684968206801F065FF2068502106E067
:105AA000CA684968206801F08BFF2068602101F016
:105AB000ADFDCFE7CA684968206801F053FF206850
:105AC0004021F4E7226801461046F0E788FFCEFF48
:105AD00070472DE9F041044600680027C668056953
