:020000040800F2
:10000000D8410224E504000843810008AD760008C9
:1000100041810008092A0008E9BB0008000000002F
:10002000000000000000000000000000250400089F
:10003000792A0008000000008104000835930008B8
:100040000305000803050008030500080305000870
:100050000305000803050008030500080305000860
:100060000305000803050008030500080305000850
:100070000305000803050008030500080305000840
:100080000305000803050008030500080305000830
:100090000305000803050008030500080305000820
:1000A0000305000803050008030500080305000810
:1000B0000305000803050008030500080305000800
:1000C00003050008030500080305000803050008F0
:1000D00003050008030500080305000803050008E0
:1000E00003050008030500080000000003050008E0
:1000F00003050008030500080305000803050008C0
:100100000305000801850008030500080305000831
:100110000305000803050008F5940008030500081E
:10012000030500080305000803050008030500088F
:10013000030500080305000803050008030500087F
:1001400000000000000000000000000000000000AF
:10015000030500080305000803050008030500085F
:10016000030500080305000803050008030500084F
:10017000030500080305000803050008000000004F
:10018000030500080305000803050008030500082F
:10019000030500080305000803050008030500081F
:1001A000030500080305000803050008030500080F
:1001B00003050008030500080305000803050008FF
:1001C00003050008030500080305000803050008EF
:1001D0000305000845810008030500080305000821
:1001E00003050008030500080305000803050008CF
:1001F00003050008030500080305000803050008BF
:1002000003050008030500080305000803050008AE
:10021000030500080305000803050008030500089E
:10022000030500080305000803050008000000009E
:10023000030500080305000800000000030500088E
:10024000030500080305000803050008030500086E
:10025000030500080305000803050008030500085E
:10026000030500080305000803050008030500084E
:10027000030500080305000803050008000000004E
:10028000030500080305000803050008000000003E
:10029000000000000305000800F002F800F0B2F8CA
:1002A0000AA090E8000C82448344AAF10107DA45D1
:1002B00001D100F0A7F8AFF2090EBAE80F0013F071
:1002C000010F18BFFB1A43F00103184718B10300D0
:1002D00038B103000A444FF0000C10F8013B13F052
:1002E000070408BF10F8014B1D1108BF10F8015B8F
:1002F000641E05D010F8016B641E01F8016BF9D182
:1003000013F0080F1EBF10F8014BAD1C0C1B09D1D8
:100310006D1E58BF01F801CBFAD505E014F8016B4A
:1003200001F8016B6D1EF9D59142D6D370470000DC
:100330000023002400250026103A28BF78C1FBD8EE
:10034000520728BF30C148BF0B6070476E2900F0CC
:100350002B83702900F07584662910F0EC806529E4
:1003600010F0E980672910F0E680612910F0E5803F
:1003700003681B0A28BF41F08001692900F0D88278
:10038000642900F0D582752900F0D2826F2900F02F
:100390000284782900F04184E92900F09D83E42952
:1003A00000F09A83F52900F09783EF2900F0FF838E
:1003B000F82900F040840368DB0928BF41F0800180
:1003C000632901F04381732901F04881E32901F099
:1003D0005381F32901F05881002070471FB510F0B8
:1003E000A5F801F0A7F904000020002110F088F81A
:1003F000401C60600020002110F06CF8E0601FBD20
:1004000010B510BD01F068F91146FFF7E7FF0DF0D8
:100410001CFC01F045FA03B4FFF7F2FF03BC01F046
:100420007DFA00002C4B19680868B0E8F04F80F3A3
:100430000988BFF36F8F4FF0000080F31188704779
:100440000000000008480068006880F308884FF04A
:10045000000080F3148862B661B6BFF34F8FBFF31C
:100460006F8F00DF00BF00BF08ED00E0DFF80C0079
:10047000016841F470010160704700BF88ED00E041
:10048000EFF30980BFF36F8F134B1A681EF0100F44
:1004900008BF20ED108A20E9F04F106009B44FF03A
:1004A000500080F31188BFF34F8FBFF36F8F0EF0B2
:1004B0008FFF4FF0000080F3118809BC19680868AD
:1004C000B0E8F04F1EF0100F08BFB0EC108A80F3B8
:1004D0000988BFF36F8F7047A0020024EFF30580F7
:1004E000704700000A4880470A4880470A4800478A
:1004F000FEE7FEE7FEE7FEE7FEE7FEE7FEE7FEE7D4
:10050000FEE7FEE705480649064A074B704700002C
:10051000E92A0008FD93000899020008D83B02244C
:10052000D8410224D83D0224D83D022453EA020CCB
:1005300000F069802DE9F04B4FF00006002B1FBF43
:10054000B3FA83F503FA05F424FA05F65E4012BF08
:100550001643B2FA82F502FA05F4C5F120051EBF72
:1005600022FA05FC44EA0C04203556EA044C4FEA12
:10057000144418BF641C4FF000084FF0000990426B
:1005800071EB030C39D3002919BFB1FA81F701FAD5
:1005900007F6B0FA80F700FA07F6C7F120071EBF8A
:1005A00020FA07FC46EA0C062037B6FBF4FCA7EB62
:1005B0000507103F07F01F0BCBF120060CFA0BFBD1
:1005C0002CFA06F644BFB3460026202FA4BF5E4691
:1005D0004FF0000B5BEA060C08BF4FF0010B19EB64
:1005E0000B09ABFB027C48EB0608C01B06FB02CCE8
:1005F0000BFB03CC71EB0C01C1E70B4602464146F5
:100600004846BDE8F08B13B54FF000004FF00001F5
:10061000AFF30080BDE81C40704710B54C1084EA71
:10062000530404D54042C1F1000138BF491E1B42AA
:1006300004D55242C3F1000338BF5B1EFFF776FFBB
:1006400014F0804F04D04042C1F1000138BF491E70
:1006500014F0004F04D05242C3F1000338BF5B1EB8
:1006600010BD00007CB51D4616460C00009001D060
:100670002044401E074B7B442A4669460190304681
:1006800000F0ABF905461CB10020694600F0B8F94E
:1006900028467CBD9103000010B5431C02E010F811
:1006A000011B71B18107FAD14FF0013202C88C1AD7
:1006B0008C4314EAC211F9D0C01A0A0603D0C01E36
:1006C00010BDC01A10BD0A0401D0801E10BD090261
:1006D000FCD0401E10BD032A40F2308010F0030C05
:1006E00000F0158011F8013BBCF1020F624498BF85
:1006F00011F801CB00F8013B38BF11F8013BA2F122
:10070000040298BF00F801CB38BF00F8013B11F09C
:10071000030300F02580083AC0F0088051F8043B3C
:10072000083A51F804CBA0E80810F5E7121D5CBFA9
:1007300051F8043B40F8043BAFF30080D20724BFDC
:1007400011F8013B11F801CB48BF11F8012B24BF70
:1007500000F8013B00F801CB48BF00F8012B7047BF
:1007600010B5203AC0F00B80B1E81850203AA0E84C
:100770001850B1E81850A0E81850BFF4F5AF5FEA80
:10078000027C24BFB1E81850A0E8185044BF18C933
:1007900018C0BDE810405FEA827C24BF51F8043BDA
:1007A00040F8043B08BF7047D20728BF31F8023B2E
:1007B00048BF11F8012B28BF20F8023B48BF00F8C2
:1007C000012B704702F0FF0343EA032242EA024290
:1007D00000F002B84FF000020429C0F0128010F0BF
:1007E000030C00F01B80CCF1040CBCF1020F18BF0D
:1007F00000F8012BA8BF20F8022BA1EB0C0100F0A0
:100800000DB85FEAC17C24BF00F8012B00F8012B72
:1008100048BF00F8012B70474FF0000200B51346A7
:1008200094469646203922BFA0E80C50A0E80C5010
:10083000B1F12001BFF4F7AF090728BFA0E80C50C1
:1008400048BF0CC05DF804EB890028BF40F8042BBA
:1008500008BF704748BF20F8022B11F0804F18BF27
:1008600000F8012B704770477047704770B5044619
:1008700085690068C10601D5302600E02026C00742
:1008800007D070BDD4E9012130469047206A401C52
:1008900020626D1EF6D570BD70B50446856900787E
:1008A000C00707D170BDD4E9012120209047206AFC
:1008B000401C20626D1EF6D570BD09684A0501D541
:1008C00040B27047C905FCD500B2704709684A05B7
:1008D00001D5C0B27047C905FCD580B2704770B56C
:1008E0000C460546012A05D02878800600D5EA691D
:1008F000002302E0012305E05B1C934202D2E05C8E
:100900000028F9D1A869E618C01AA861286A184415
:1009100028622846FFF7AAFF04E0D5E9012114F870
:10092000010B9047B442F8D32846FFF7B5FF70BDDE
:100930002DE9F0410646002410687529314616A5B8
:1009400010D0FFF7BAFF002802DA404213A507E0F3
:1009500031688A0701D512A502E0490704D511A51F
:10096000012401E0FFF7B2FF00210A2206F124076B
:1009700009E0B0FBF2FCB0FBF2F302FB1C003030EC
:1009800078541846491C0028F3D123462A4630469D
:10099000BDE8F04100F069BA000000002D00000041
:1009A0002B0000002000000011680268006A530557
:1009B00001D508700AE0D30501D5088006E01306CA
:1009C00003D5C217C1E9000200E0086001207047AA
:1009D00001694A1C02610878704700B58FB0CDE903
:1009E00001310021059105497944CDE903101146F3
:1009F000684600F031F90FB000BD0000E5FFFFFFD1
:100A00000A6802F8010B0A607047D1E900239A4294
:100A100002D2531C0B601070704700002DE9FF5F7D
:100A200015468A460446DFF8AC80F8440027D8E92A
:100A300000103E46CDE9001010E03AF816106A4664
:100A400002A800F025FE411C07D02178890603D5B5
:100A5000E269391891420DD80744761C2078800647
:100A600002D5E069B84205DDAE42E6DB3AF8160091
:100A70000028E2D1A069C01BA0612046FFF7F6FE66
:100A8000D8E90010CDE90010002017E03AF818105E
:100A90006A4602A800F0FCFDB0F1FF3F81460BD092
:100AA00000250DF1080B05E0D4E901211BF8050034
:100AB00090476D1C4D45F7D308F10100B0428046C8
:100AC000E4DB206A384420622046FFF7E5FEBDE8FB
:100AD000FF9F000042A803002DE9F0418046D21D8F
:100AE00022F007020025D2E90002F52915A614D04C
:100AF000011E72F1000106DA0023D0EB030063EB64
:100B0000020211A608E0D8F800108B0701D50FA645
:100B100002E0490701D50EA601251146002408F17F
:100B2000240704E000F05CF930323A55641C50EAC6
:100B30000102F7D12B46324621464046BDE8F0413E
:100B400000F093B9000000002D0000002B00000011
:100B50002000000030B4002100F1240408E002F07D
:100B60000705D208303542EA4372DB086554491C58
:100B700052EA0305F3D10468002310A2250707D524
:100B8000A40600D421B1C46901230DA2641EC4616E
:100B900030BC00F06AB910B5044621461068FFF772
:100BA00095FE02462046BDE810400023D2E7D21D44
:100BB00022F00701D1E90023CCE70000000000008B
:100BC00030000000F0B40D460188090502D5214C23
:100BD0007C4402E01F4C7C440E34002100F12406CA
:100BE00008E002F00F071209E75D42EA03721B09F1
:100BF0007754491C52EA0307F3D102780023120705
:100C000004D5702D06D009B1022311342246F0BC60
:100C100000F02BB901231034F8E770B504460D46F7
:100C200021461068FFF752FE024629462046BDE8DD
:100C300070400023C6E7D21D22F00703D3E900234A
:100C4000C0E70368126843F0200303600823C36110
:100C50000023B7E7A4A603002DE9F05F8946044608
:100C60004FF0000ADFF874B1FB44C0F820A0204622
:100C7000E1688847002874D0252806D0D4E90121EE
:100C80009047206A401C2062F1E700265F4620461C
:100C9000E16888472028054607DB312D05D2781901
:100CA00010F8200C08B10643F1E7B00701D526F093
:100CB0000406C4F81CA00027C4F818A02A2D09D0E7
:100CC00028460AF0BBFF38B304EB8708303DC8F86C
:100CD000185019E059F8041B204604EB8702916173
:100CE000E1688847012F054618D1E069002820DA1D
:100CF00026F020061DE0D8F8180000EB800005EB78
:100D000040003038C8F818002046E168884705469A
:100D10000AF094FF0028EED1012F0AD02E2D08D121
:100D20002046E16888477F1C0546022F46F02006D2
:100D3000C4DBA069002803DA404246F00106A06146
:100D4000F00701D026F010066C2D0BD0682D09D0CD
:100D50004C2D39D06A2D35D0742D35D07A2D33D025
:100D600016E038E0E1682F4620468847B84205463D
:100D700009D16C2F26D04FF48060E16806432046ED
:100D80008847054604E06C2F1AD04FF48070064364
:100D90000DB3A5F14100192802D8203546F40066AC
:100DA0004A462946204626604E46FFF7CFFA80B1D4
:100DB00001280BD0F61D26F0070000F1080956E7C0
:100DC0004020E4E78020D8E70020D6E706F10409B8
:100DD0004DE7284652E7206ABDE8F09F34A603009D
:100DE00030B5B0F10A024FEA900E71F100034EEAFD
:100DF000817EB0EB0E0061EB91014FEA101E4EEACE
:100E0000017E10EB0E0041EB11114FEA102E4EEA5D
:100E1000016E10EB0E0041EB11214FEA104E4EEA2D
:100E2000014E10EB0E0041EB1141401841F1000161
:100E30004FEAD00040EA41704FEAD10110EB800543
:100E40004FEA810444EA907444EB01046D1944EBC9
:100E50000404521BA3414FF0000348BF0A3200D5DF
:100E600030BD401C41F1000130BD2DE9F0470D4679
:100E700099469246044600F124080168880604D584
:100E8000E06921F01001216000E00120A84201DDAD
:100E9000471B00E00027A1697A1902EB0900081A34
:100EA000A0612078C00602D42046FFF7DFFC0026B0
:100EB00008E0D4E901211AF806009047206A401C96
:100EC000761C20624E45F4DB2078C0060AD5204609
:100ED000FFF7CCFC06E0D4E9012130209047206ADE
:100EE000401C2062381EA7F10107F4DC07E0D4E9BA
:100EF000012118F805009047206A401C2062281E36
:100F0000A5F10105F3DC2046FFF7C6FC20780006BA
:100F100002D50220BDE8F0870120FBE770472DE9EC
:100F2000FF4F0C461E464FF0FF378BB0D2E9000151
:100F3000DDF860800A908A46C1F30A5505B93D463E
:100F4000002108464FF00000BAF1000F00F4400005
:100F500005DA00EB80004FF4400101EA50004FEA4F
:100F60009059B9F1010F00DDB9460A9850EA4A00DC
:100F70000ED044F61050A5F2FF3545432F14B8F1BA
:100F8000000F1ED07542291E1EDDC9F100021CE0B3
:100F9000B8F1010F4FF0000001D0302103E0F2431F
:100FA00005E02154401CB042FBDB3046002200210A
:100FB00021540B99C1F80880C1E900200FB0BDE8A9
:100FC000F08FBD1B6D1CDEE74A4600DA694206A8B9
:100FD00000F0F4FB06AB93E8070003AB83E80700DF
:100FE00050460A9900F0A1FC8DE80700A0F50050DA
:100FF0001F3800900398002D0ADD42F21F014A4677
:101000000844002303A90390684600F00AFF09E0A2
:10101000A0F500504A461F38002303A903906846F4
:1010200000F014FF8DE807000004000C03D04FF01F
:10103000FF30410800E01046B8F1000F03D0002255
:10104000009215461EE0751E05D4FFF7C9FE30322A
:1010500062556D1EF9D5B3460122084302D0002225
:101060007F1C04E02078302801D100227F1E002A56
:10107000099784D01DE0112D07DAFFF7B1FE303259
:1010800062556D1C50EA0102F5D1084302D0009868
:10109000C8B10EE00021681E05E0235C625C635469
:1010A0002254401E491C8142F7DBAB46A81B401E60
:1010B0000990002004F80B000B98099AC0F80880EA
:1010C000C0E9002B7AE711264FF0000857E72DE919
:1010D000F04F88460446D21D22F0070191B0D1E9B5
:1010E0000001CDE90A010AF080FD02460B98C00F0D
:1010F00001D02D2007E02068810701D52B2002E0D8
:10110000202101EAC000032A099001D0072A05DB4B
:1011100003464146204600F011FB0BE12078800693
:1011200001D5E06900E00620B8F1650F814606D0E0
:10113000B8F1660F18D0B8F1670F70D131E0002018
:10114000B9F1110F009001DB112301E009F1010356
:101150000AAA01A90CA8FFF7E2FEDDE90C7000263F
:1011600009F10105834647E001204B4600904FF00E
:1011700000470AAA01A90CA8FFF7D1FEDDE90DB0CE
:101180000C995D46002610B909F101000D18B9EB64
:10119000050003D4C0F1FF3609F10105A5EB0900F4
:1011A0002BE0B9F1010F01DA4FF001090020B9F18C
:1011B000110F0090484601DD112300E003460AAA02
:1011C00001A90CA8FFF7ABFEDDE90C704D46002627
:1011D0008346207800070AD4AB4500DA5D4601A8B3
:1011E000012D04DD411911F8011C302907D04F45AC
:1011F00002DA17F1040F04DA012082460FE06D1EB7
:10120000EEE7002F02DCED1B3E4403E0781CA84211
:1012100000DD7D1CB81B00F1010A4FF0004720786B
:10122000000703D4AA4501DB4FF0FF3A0021B7F1D4
:10123000004F0DF143088DF8431024D002202B23DA
:10124000002F01DA7F422D230A21021EA0F10100A6
:1012500000DC5FB197FBF1FC97FBF1F201FB1C7C1A
:1012600017460CF1300C08F801CDEEE7A8F10100AB
:1012700003702188090501D5452100E06521A0F111
:10128000010800F8011C09980FA9A1EB0807FF1D30
:1012900000B10120411901EBEA70A1693844081A34
:1012A000401EA0612078C00602D42046FFF7DEFA77
:1012B000099828B1D4E901219047206A401C206296
:1012C0002078C00622D52046FFF7D0FA1EE0002E77
:1012D00004DBB34502DD01A8805D00E03020D4E9E5
:1012E00001219047206A401C2062761CAAF101006F
:1012F0005FEA000A0AD100F01DFAC0680168405C8C
:10130000D4E901219047206A401C2062281EA5F1E3
:101310000105DCDC07E0D4E9012118F8010B904756
:10132000206A401C2062381EA7F10107F3DC20462A
:10133000FFF7B2FA032011B041E600002DE9F04FAB
:1013400004460D46D21D22F0070089B0D0E900976F
:10135000484639460AF049FC0246F80F01D02D23D1
:1013600007E02068810701D52B2302E0202101EA54
:10137000C0038DF820300BB1012000E00020032ACB
:10138000824601D0072A04DB2946204600F0D6F920
:101390003FE12078800601D40D2500E0E569C7F320
:1013A0000A560D2D49DA00214FEA175B08464FF027
:1013B0000000002F00F4400007DA00EB80004FF43B
:1013C000400100EBD07001EA60008115012901DDC8
:1013D0004FF0FF3100224FEA850CBCF1180F06D305
:1013E0001346ACF118004FF08052C24003E04FF4B6
:1013F000801323FA0CF30CF10C0CBCF1200F04D376
:10140000ACF1200C09FA0CF001E007FA0CF000290D
:101410004FF0004801DD18B90FE00ED140450CD364
:1014200019EB02095F4121B9404502D19F4329EAE6
:101430000209BBEB175F00D0761C2088000502D59F
:101440007B48784402E07A487844193808AA302367
:1014500002F80A30037C0AF10101002E0AF1020AA7
:1014600053546A4602DC4FF0300101E04FF0310185
:101470004FF001088DF8001002D0A6F2FF3603E00D
:1014800059EA470100D06B4E002D02DC2178090794
:1014900004D54FF002082E218DF80110C44600211A
:1014A0000BE0C7F303433F01C35C491C6D1E02F808
:1014B0000830052908F1010801DA002DF1DC0021CE
:1014C0000CE000EB1973491C1B786D1E082902F80B
:1014D00008304FEA091908F1010801DA002DF0DCA3
:1014E00021688B0602D516E0A8F10108E04505DD6C
:1014F00002EB080313F8013C302BF5D0B8F1000FD4
:1015000009DD02EB080313F8013C2E2B03D1090778
:1015100001D4A8F10108002D05DD3E2102F80810D4
:101520006D1E08F10108407C002E02F8080008F149
:10153000010804DA2D20764202F8080002E02B2090
:1015400002F808000A214FF47A70864208F1010877
:101550000BDB96FBF0F3303302F8083096FBF0F328
:1015600008F1010800FB136601E0642E0CDB642027
:1015700096FBF0F3303302F8083096FBF0F308F1F5
:10158000010800FB136601E00A2E06DB96FBF1F072
:10159000303002F8080008F1010896FBF1F001FB79
:1015A0001060303002F80800A16908F1010808EB6A
:1015B000050202EB0A00081AA0612078C00602D4D6
:1015C0002046FFF753F9216A08AE01EB0A002062BA
:1015D00004E0D4E9012116F8010B9047BAF1010AA1
:1015E000F7D22078C00602D52046FFF73FF96E46B5
:1015F00009E016F8010B3E280FD0D4E901219047ED
:10160000206A401C2062B8F10108F2D22046FFF7A0
:1016100043F909B00320BDE8F08F206A2844206216
:1016200003E0D4E90121302090476D1EEBD3F8E7A9
:101630007E9E030002FCFFFF10B5436913B1AFF3B8
:10164000008001E0FFF74BF9012010BD127800F196
:1016500024010A7000224A700122EDE711684FF060
:10166000FF32E9E710B5436913B1AFF3008001E041
:10167000FFF7D4F9012010BD128800F12401828403
:101680000022C2840122EDE711684FF0FF32E9E742
:1016900070B516460C46054600F044F8036893F80A
:1016A0000101012806D0FF2C0FD8185D68B1012078
:1016B0002C7070BDD3F807013246214603F20713A0
:1016C00003442846BDE8704018474FF0FF3070BD16
:1016D00000487047783B02247546FFF7F9FFAE4695
:1016E00005006946534620F00700854618B020B52E
:1016F000FEF708FFBDE820404FF000064FF000075E
:101700004FF000084FF0000B21F00701AC46ACE8A9
:10171000C009ACE8C009ACE8C009ACE8C0098D4616
:101720007047000010B500F005F8001D10BD00BFA7
:10173000D1ED000000487047983B02242DE9F041AC
:101740001F46044603260168072A01F4006004DBF3
:1017500008B116A505E016A503E008B115A500E03F
:1017600015A521F010002060A069C01EA0610FB176
:10177000401EA0612046FFF779F84FB1D4E901215E
:1017800038469047206A401C2062C01C206206E058
:10179000206AFAE7D4E9012115F8010B9047761E7B
:1017A000F8D22046FFF778F8BDE8F0814E414E00B0
:1017B0006E616E00494E4600696E66002DE9F04785
:1017C000814616468AB0354878440DC88DE80D002C
:1017D00032487844801C03AC0DC884E80D0041F603
:1017E0009B300844372190FBF1F290FBF1F5A5F115
:1017F000800501FB12041B3C02D56442012000E07D
:101800000020DFF898A080460027FA44AAF1BE0A1B
:101810000EE0E0070AD03246684607EB4701012395
:101820000AEB810100F012FB8DE8070064107F1CB9
:10183000002CEED1194F7F44AE3F19E0E80715D0D8
:1018400007EB04100DF1180A90E80E008AE80E006C
:10185000C068F04201D1981908903246012306A9C8
:1018600003A800F0F3FA03AB83E807006D10641CD3
:10187000002DE3D14FF0010332466946B8F1000F65
:1018800003A802D000F0CDFA01E000F0DFFAC9E9C8
:101890000001C9F808200AB0BDE8F087889B030062
:1018A00010B50446AFF300802046BDE81040FEF7B7
:1018B000B2BD00004FF0013C50F8042B51F8043B3E
:1018C0009A4215D1A2EB0C03934313EACC130BD12C
:1018D00050F8042B51F8043B9A4209D1A2EB0C03B7
:1018E000934313EACC13E7D04FF00000704700BFDA
:1018F000D01A01BAB1FA81F101F0180122FA01F00F
:10190000CB40C1F12001DBB2C0B2C01A2CFA01F306
:10191000D11A914311EAC311E6D170470149182049
:10192000ABBEFEE72600020070475FEA400C08BF2E
:1019300091F0000F4FEA8C234FEAC12243EA515144
:101940004FEA1C5018BF00F5F0404FEA300018BFB6
:1019500041F000415FEA6C5C00F02980BCF1FF3F80
:1019600008BF40F080407047130C06BF12044FF0D0
:10197000100C4FF0000C130E04BF12020CF1080CF7
:10198000130F04BF12010CF1040C930F04BF92005B
:101990000CF1020CD30F04BF52000CF1010C1146E4
:1019A0004FF00002A0F11F00A0EB0C00704711F0F7
:1019B000004F08BF704731F000413FF4D5AF0B0C2A
:1019C00006BF09044FF0100C4FF0000C0B0E04BFC3
:1019D00009020CF1080C0B0F04BF09010CF1040CF7
:1019E0008B0F04BF89000CF1020CCB0F04BF490020
:1019F0000CF1010CCCF12003A0EB0C0022FA03F354
:101A000002FA0CF241EA030100F10100704720F0F4
:101A10007F4C80EA030023F07F47ACEB070303F51C
:101A20007C5300F0004003F1FF032DE980494FEAA9
:101A3000154B09B44FEA144325EA0B4E24EA034838
:101A40000FF2042606EB132749083E785FEA3202BC
:101A500003FB0667C7F5000707FB06F64FEA543796
:101A60004FEAD64606F1020607FB066CCCF1005C95
:101A70004FEA1C472CEA074C07FB06F40CFB06F563
:101A800004EB15464FEA961634BF00204FF0004095
:101A90004FEAD13706FB07FC4FEA1C4C0CFB0BF757
:101AA000D21B03FB0CF761EB07010CFB0EF7B0EB4D
:101AB000074072EB17420CFB08F734BFA2EB07425A
:101AC000B2EB074261EB17414FEA0C444FEA910732
:101AD00006FB07FC4FEA1C4C0CFB0BF7B0EBC740B6
:101AE00072EB573203FB0CF734BFA2EBC742B2EBE9
:101AF000C74261EB57310CFB0EF7B0EBC70072EB3E
:101B000057720CFB08F734BFA2EBC702B2EBC70257
:101B100061EB5771039F4FEA816141EA921104EB37
:101B2000CC044FEAD1374FEA826206FB07FC42EA57
:101B300090124FEA80604FEA1C4C0CFB0BF7D21B53
:101B400003FB0CF761EB07010CFB0EF7B0EB074052
:101B500072EB17420CFB08F734BFA2EB0742B2EB63
:101B6000074261EB17414FEA8C554FEA910704EBAE
:101B70009C2406FB07FC4FEA1C4C0CFB0BF7B0EB5C
:101B8000C74072EB573203FB0CF734BFA2EBC742DE
:101B9000B2EBC74261EB57310CFB0EF7B0EBC7005D
:101BA00072EB57720CFB08F734BFA2EBC702B2EB23
:101BB000C70261EB577115EB4C254FEA816141EA91
:101BC00092114FEA82624FEAD13742EA901206FB45
:101BD00007FC44F100044FEA80604FEA1C4C0CFB08
:101BE0000BF7D21B03FB0CF761EB07010CFB0EF7A5
:101BF000B0EB074072EB17420CFB08F734BFA2EBC7
:101C00000742B2EB074261EB174115EB1C154FEA97
:101C1000813141EA92414FEA823242EA90424FEAF0
:101C200080304FEA0C7644F1000448EA03434EEA60
:101C30000B484FF0000EB2EB080C71EB030724BF0A
:101C4000624639464EEB0E0E4FF0000B0018524123
:101C500049414BEB0B0BB2EB080C71EB03077BF12B
:101C6000000B24BF624639464EEB0E0E4FF0000BC0
:101C70000018524149414BEB0B0BB2EB080C71EBD6
:101C800003077BF1000B24BF624639464EEB0E0E74
:101C900051EA020718BF46F0010616EB0E7655F121
:101CA000000254F1000103D5BDE88901BDE80088B8
:101CB000BDE88901BDE80048B619524141EB010178
:101CC000A3F10103704780807F7E7D7C7B7A7978E9
:101CD000777676757473727171706F6E6E6D6C6CF1
:101CE0006B6A6A6968686766666564646363626193
:101CF0006160605F5F5E5E5D5D5C5C5B5B5A5A5914
:101D0000595858575756565555555454535352527F
:101D10005251515050504F4F4F4E4E4D4D4D4C4CD7
:101D20004C4B4B4B4A4A4A49494948484847474720
:101D3000474646464545454444444443434343425D
:101D4000424242414141002B9C4630D477002BD087
:101D50001CB54FEA370703B44FF010004FF01001E5
:101D6000BAF1000F06D0BCF1000FDCBF40F0080054
:101D700040F008014FF000000FBCBDE810400BF12F
:101D8000010BBBF1010F08BF5FEA170722BF12F179
:101D9000010211F101014FF0004143F1000300F095
:101DA000004043EA00007047F9D35708D0E746EAFD
:101DB000064613F1400F4FEA16461FDD13F1200FC0
:101DC000DFBF16430A46002120335B42BED0C3F179
:101DD000200746EA064602FA07F74FEA164646EAA1
:101DE0000706C3F1200722FA03F201FA07F721FAE6
:101DF00003F14FF0000342EA0702A7E746EA0206B2
:101E000046EA06464FEA164646EA0106BCBF46EADF
:101E10000646360C4FF000034FF000024FF0000171
:101E200094E72DE9804C9A46934670B491E83800C7
:101E300007C831EA400C48BF34EA430C03D5FFF72A
:101E4000E6FDFFF780FFF0BCBDE8008C2DE9804C7B
:101E50009A46934670B491E8380007C810F0804F56
:101E600008BF13F0804F03D100F005F8FFF76BFFB8
:101E7000F0BCBDE8008C20F07F4780EA030023F02F
:101E80007F4C07EB0C03A3F57C5300F00040A3F15B
:101E9000FE0392F0000F00F0B38095F0000F00F009
:101EA00077802DE901494FEA11404FEA144621EAB3
:101EB000004800FB06FC24EA064708FB06F607FB81
:101EC00008F800FB07F718EB06484CEB164C4FEAF6
:101ED000124B18EB07484FEA15464CEB174022EA25
:101EE0000B4E0BFB06FC25EA06470EFB06F607FB2E
:101EF0000EFE0BFB07F71EEB064E4CEB164C4FF09D
:101F000000061EEB074E4CEB174B18EB0B0840F18D
:101F1000000018EB0E0B58EB000840F100008F1A80
:101F20004FF000013CBFC943661B14BFB5EB040C66
:101F300000213CBFC943F61B4FEA17444EEA8E0E00
:101F400027EA04454FEA1C4704FB07622CEA074CCA
:101F500005FB07F70CFB05F604FB0CFC16EB07462C
:101F600042EB174216EB0C4642EB1C421BEB0606FB
:101F700058EB0202414146EA9E0601D5BDE80189BF
:101F8000B619524141EB0101A3F10103BDE80189FA
:101F90004FEA14454FEA114724EA054621EA074C67
:101FA00005FB07F406FB07F70CFB06F105FB0CFC31
:101FB00011EB074144EB17444FEA124711EB0C4178
:101FC00044EB1C4422EA074C05FB07F206FB07F72B
:101FD0000CFB06F605FB0CFC16EB074642EB174222
:101FE00016EB0C4642EB1C456A1854F1000148BF41
:101FF0007047B619524141EB0101A3F1010370474B
:1020000095F0000F37D04FEA11424FEA144721EA0A
:10201000024624EA074C02FB07F106FB07F70CFB1C
:1020200006F402FB0CFC14EB074441EB17414FEAAA
:10203000154714EB0C4441EB1C4125EA074C02FB0D
:1020400007F506FB07F70CFB06F602FB0CFC16EB8C
:10205000074645EB174516EB0C4645EB1C4212199B
:1020600051F1000148BF7047B619524141EB0101DF
:10207000A3F1010370474FEA14454FEA114724EAE0
:10208000054621EA074C05FB07F106FB07F70CFBA9
:1020900006F24FF0000605FB0CFC12EB074241EB89
:1020A000174112EB0C4251EB1C4148BF704792188C
:1020B00041EB0101A3F10103704700002DE9F04F4E
:1020C000EE4CADF2446DA0686169491C6161002865
:1020D0007ED00026A6604FF40077E060267026626E
:1020E0006662A662E662E663A569C5B1BD4200D933
:1020F0003D464FF00108A5610928DFF880B30DF5D2
:1021000086690DF50C7ACDF834660BF18C0B76D21E
:10211000DFE800F075070A3C76E1ECFDFC000125E4
:10212000E7E700F0BFF99FE100F0BCF920702078EC
:1021300000287DD159464A4602E00B5C1354401CEE
:10214000A842FAD30A226846CDA10AF089FE0028E7
:10215000206253D10DF234632A460DF5866168463C
:102160000BF0F7F8060009D168460BF047F80600B7
:1021700004D1DDF83406A84200D001262662DDF83D
:102180003406606268460AF015FE36E000F08AF90F
:10219000207020780028CCD18CA83946FEF73CFB73
:1021A00001226846B6A10AF05BFE00282062D0D169
:1021B0000DF234632A468CA968460AF061FF0600D6
:1021C00004D1DDF83406A84200D00126266200E0E2
:1021D0004EE1DDF83406A06268460AF0EBFDDDF85A
:1021E00034360020002B08D9A94A51460D5C1554FD
:1021F000401C984201D2B842F8D330460AE13BE194
:1022000000F050F920702078002892D1594603E060
:102210000B5C09F80030401CA842F9D38CA8394661
:10222000FEF7FAFA0A22684695A10AF019FE00E0C4
:10223000CEE000282062E1D10DF234632A460DF58C
:10224000866168460BF085F8070003D168460AF0FE
:10225000D5FF074668460AF0ADFDDDF8340660623A
:1022600017B9A84202D0012727621CE00122684664
:1022700083A10AF0F5FD00282062BFD10DF234637E
:102280002A468CA96846CDF834660AF0F9FE06465F
:1022900068460AF08FFDDDF83416A16216B9A9422E
:1022A00004D001262662206AC0B2B3E0784B002039
:1022B0004A46514608E00E5C1E54175CBE4202D0EE
:1022C000E66A761CE662401CA842F4D3E06A002865
:1022D0007ED04046C7E000F0E5F820702078002866
:1022E00093D167A00AF0DBFF206293E0206BCDF86A
:1022F000300600F0D7F820702078002868D1DDF88B
:10230000300660630A2263A1684601E04CE01DE0EC
:102310000AF0A6FD206200287CD10DF234636846E5
:102320000422191F0BF015F8050003D168460AF0C6
:1023300065FF054668460AF03DFDDDF8340660623B
:102340000DB9042823D12562284663E0CDF8306614
:1023500000F0A8F820702078002839D101226846C2
:102360004CA10AF07DFD206298BB0DF234636846F3
:102370000422191F0AF084FE054668460AF01AFD79
:10238000DDF83416A162002DDDD1042901D001252C
:10239000D9E7DDF83006A063216B884201D1012026
:1023A00000E00020E063CEE7206BCDF83C66CDF87E
:1023B000300600F077F82070207848B9DDF8300654
:1023C00060630A2233A168460AF04AFD206201E0F8
:1023D0004BE01FE0F0B90DF2346368460422191F88
:1023E0000AF0B7FF050003D168460AF007FF05466B
:1023F00068460AF0DFFCDDF834066062FDB90428A7
:1024000001D001251BE00122684622A10AF028FD27
:10241000206210B100F064F826E0042268460DF254
:102420003463CDF834660DF23C610AF029FE0546AE
:1024300068460AF0BFFCDDF83416A1620DB12562D2
:1024400031E70429DDD1DDF83C06A063DDF8301664
:10245000884201D1012000E00020E063E06B20B958
:102460004046C4F82C8020622070E069401CE06186
:102470000DF2446DBDE8F08F0420F5E70000002464
:10248000303A2F5344544553542E42494E000000D5
:1024900070040024303A2F53445641522E42494E84
:1024A000000000000B4810B5094C007860B90A48DC
:1024B000007848B10849012208480AF093FC2062DC
:1024C000BDE8104000F00CB803202062052010BDCC
:1024D0000000002460040024610400241439022454
:1024E000142815D2DFE800F00A1414101212121486
:1024F000140E14141012140C1414140E002070472F
:102500000320704704207047052070470220704761
:102510000120704770B504000D4613D095B10E48E8
:10252000007888B109F00CFC00280AD1214609F096
:10253000D9FB04000AD000BF09F04EFC09F010FCE2
:10254000204670BD042070BD052070BD00202946C6
:1025500009F086FC0446EFE7490400247CB53F4DB2
:1025600000208DF804008DF80000287009F0E8FBC9
:1025700000286AD109F030FC39490720C8600846B4
:1025800004F006F810B100F0A4FA16E009F05DFBC3
:10259000040055D1B6217E2009F0C4FB04004FD1C0
:1025A000322009F0EBFB09F050FB040048D101AEEA
:1025B0000020314609F096FB08B1044640E030782F
:1025C0001E2807D0022009F0D9FB641C052CEFD38C
:1025D0000220F2E70020694609F042FC04002FD1F6
:1025E0009DF800000F2801D0022429E004217D205D
:1025F00009F098FB040023D1052009F0BFFB00215E
:102600007C2009F08FFB04001AD1322009F0B6FBC0
:102610000121412009F086FB040011D1AB214020AB
:1026200009F080FB04000BD100210F2009F038FCD9
:10263000040005D10221102009F032FC040005D06D
:1026400009F0CAFB09F08CFB20467CBD01202870F4
:1026500009F0C2FB09F084FB00207CBD4904002482
:10266000940700242DE9FC41060014460D461AD0BB
:10267000CDB1C4B123480078B8B109F061FB00289E
:102680000FD10090019009F03DFB0622694612200F
:1026900009F0F4FA074609F09FFB09F061FB37B136
:1026A0003846BDE8FC810420FBE70520F9E7BDF9C9
:1026B0000020BDF9040002EE102A00EE900ADFEDC2
:1026C000121AB8EEC22AF8EEE02ABDF90210002074
:1026D0009FED0E0AC2EE210A01EE101AB8EEC11AE1
:1026E00081EE212A60EE800AC6ED000A82EEA11A70
:1026F00062EE001AC5ED001A21EE000A84ED000A10
:10270000CFE700004904002400A0AA450AE81C41C4
:102710002DE9FC41060014460D461AD0CDB1C4B1D6
:1027200023480078B8B109F00BFB00280FD10090C6
:10273000019009F0A5FB06226946022009F05CFB26
:10274000074609F049FB09F00BFB37B13846BDE8F5
:10275000FC810420FBE70520F9E7BDF90020BDF965
:10276000040002EE102A00EE900ADFED121AB8EE15
:10277000C22AF8EEE02ABDF9021000209FED0E0AF1
:10278000C2EE210A01EE101AB8EEC11A81EE212A1A
:1027900060EE800AC6ED000A82EEA11A62EE001A0F
:1027A000C5ED001A21EE000A84ED000ACFE7000013
:1027B000490400246F12834135FA8E3C30B587B04E
:1027C00009F058FC002852D100258DF8185001223C
:1027D000D02006A909F084FC040045D19DF818001A
:1027E000582801D002243FE0B621E02009F0DEFCA9
:1027F000040039D1052409F0C1FC18B120460BF0C2
:1028000093FA1BE01F4920480B684FF47A7243F09B
:1028100080730B60016841F0010101601B49096888
:10282000B1FBF2F101B901210422436800E000BFCD
:102830004468E41A8C42FAD3521EF6D21822694632
:10284000882009F04DFC04000ED1684609F02CFCEC
:102850005721F42009F0AAFC040005D19021F520AD
:1028600009F0A4FC040004D009F092FC204607B053
:1028700030BD0748012185704560417009F088FC32
:102880000020F4E7FCED00E0001000E098020024D6
:10289000400400247CB5040009D0184D687840B18C
:1028A00009F0E8FB002803D1A87820B108E0042053
:1028B0007CBD05207CBD01A809F028FC050006D1DF
:1028C00003226946F72009F00BFC050003D009F04C
:1028D0005FFC28467CBD684609F0DCFB09F00AFB7A
:1028E00000EE100ADFED060AB8EE400A20EE200ADC
:1028F00084ED000A09F04CFC00207CBD400400245B
:102900000000803B10B504000ED00948407868B143
:1029100009F0B0FB002806D1204609F0F7FB044679
:1029200009F036FC204610BD042010BD052010BD66
:10293000400400240146014803F07CBA1807002433
:10294000044810B503F088FA042801D0012010BD16
:10295000002010BD1807002410B500F015F801285C
:1029600001D0022010BD074803F012FC040006D17C
:1029700004484FF4804103F0B9F800B10124204627
:1029800010BD00001807002408B501208DF80000D4
:102990009DF8000008BD000013460A4610B500244B
:1029A0000146034803F014FD00B10124204610BD88
:1029B0001807002408B5012069460023ADF800007F
:1029C0001A46024840680BF07FFA08BD58040024FC
:1029D00013460A4610B500240146034803F06CFD77
:1029E00000B10124204610BD1807002408B50220BC
:1029F00069460023ADF800001A46024840680BF013
:102A000063FA08BD58040024FEE700207047002048
:102A10007047000005490022054810B507F0F8FC92
:102A20000449034807F0E7FC002010BDF828022401
:102A30001C1C0224F82002240146044810B507F0AB
:102A4000DAFC024807F0B0FC002010BD1C1C022478
:102A50000020704710B5064C606920B905480BF09E
:102A600097FA606108B1002010BD052010BD00007C
:102A7000180400245C060108704700000C4870B57B
:102A80000C490068884201D0042070BD0A4C002522
:102A9000606820B909480BF07BFA606020B1012022
:102AA000A5602070002070BD0520257070BD00005D
:102AB0006808002400100140300400246C0601085E
:102AC0000FB410B504AA039909F0E2FD10BC5DF83B
:102AD00014FB002804D0022801D0032800D00120D4
:102AE000704772B6FEE700000548054908390268DC
:102AF00042F00202026008688004FCD570470000C2
:102B00000C480258002200F001B800000E4B70B5CE
:102B100005465C7A0120002C14D15E7A03F108008E
:102B20009C555E7A03EB860675605D7A2A54587A66
:102B3000421C5A723A232F22303008704B702046C4
:102B40008A70CC7070BD00006C3B022470B50446E6
:102B500000F03CF90546601C02D0044800780444AB
:102B600000F034F9401BA042FAD370BD8C0200245F
:102B70002DE9F84F03247F4D00234FF001094FF05A
:102B8000B04B4FF00F0AEDE009FA03F632407AD06D
:102B90000F7907F00307012F01D0022F19D18768A1
:102BA0004FEA430ED1F80CC004FA0EF827EA0807E2
:102BB0000CFA0EFC4CEA070CC0F808C0D0F804C0B0
:102BC0000F792CEA060CC7F300179F4047EA0C0761
:102BD00047600E79F643B60702D18E68012E0BD0FE
:102BE000C6684FEA43088F6804FA08FC26EA0C0618
:102BF00007FA08F73743C7600E7906F00306022E7E
:102C000012D1DE080F694FEA437C00EB8606B64618
:102C1000366A4FEADC6C0AFA0CF807FA0CF726EA77
:102C200008063743CEF820700F7906684FEA43084C
:102C300007F0030704FA08FC07FA08F726EA0C066F
:102C4000374307604E6816F4403F1CD04A4E376841
:102C500047F00207376036689F0706F002060096C5
:102C600023F0030606F1B046B6463F0FD6F80864D7
:102C7000DFF808810AFA07FC404526EA0C0603D172
:102C80004FF0000C41E06CE0DFF8F4C0604502D189
:102C90004FF0010C39E0DFF8ECC0604502D14FF095
:102CA000020C32E0DFF8E0C0604502D14FF0030CC7
:102CB0002BE0DFF8D8C0604502D14FF0040C24E0CF
:102CC000DFF8CCC0604502D14FF0050C1DE0DFF805
:102CD000C4C0604502D14FF0060C16E0DFF8B8C062
:102CE000604502D14FF0070C0FE0DFF8B0C060453F
:102CF00002D14FF0080C08E0DFF8A4C0604502D113
:102D00004FF0090C01E04FF00A0C0CFA07FC4CEAFA
:102D1000060CCEF808C44F68DBF80060FF0226EA14
:102D2000020600D516435F46CBF80060D1F804C018
:102D3000DBF804605FEA8C2C26EA020600D5164315
:102D40007E606E684F6826EA0206BF0300D5164310
:102D50006E602E684F6826EA0206FF0300D5164310
:102D60002E605B1C0A6832FA03F67FF40DAFBDE8F3
:102D7000F88F000080000058F44402580000025808
:102D80000004025800080258000C025800100258B3
:102D90000014025800180258001C02580020025863
:102DA00000240258426921EA02030A4043EA024130
:102DB000816170470AB1816170470904FBE7000037
:102DC00001480068000C70470010005C01488068F2
:102DD000704700008C02002430B590F84120202A72
:102DE00024D190F84020012A20D0012380F84030DF
:102DF000242280F84120202300240268156825F051
:102E0000010515600268156825F480551560026893
:102E100015680D43156001680A6842F001020A60F6
:102E200080F8413080F84040002030BD022030BDA5
:102E300030B590F84120202A22D190F84020012A74
:102E40001ED0012380F84030242280F84120202425
:102E500000250268136823F00103136002681368F9
:102E600023F4706343EA0121116001680A6842F0AB
:102E700001020A6080F8414080F84050002030BDD7
:102E8000022030BD70B5040004D094F84100002544
:102E900010B106E0012070BD204684F8405000F0DB
:102EA000AFF9242084F841002068016821F0010175
:102EB0000160D4E9001020F070600861206881682A
:102EC00021F400418160E06821680128A06830D0C9
:102ED00040F404408860E0680228206841682BD0F4
:102EE00021F40061416020682021154A43681343A2
:102EF00043602068C26822F40042C26054F8106B3C
:102F00000DCC104340EA0320F06054F81C3CD4E997
:102F100000021043186054F81C0D026842F00102D0
:102F20000260656484F84110256384F842500020F3
:102F300070BD40F40040CDE741F40061D2E70000ED
:102F4000008000022DE9FF4F83B0044690F8410055
:102F50009A469346DDE91087DDF84890202874D121
:102F60005FEA080014D09FB194F8400001286CD0AB
:102F7000012084F84000FFF729FF012206461923AB
:102F80000090D103204604F075FD002871D103E0C4
:102F90004FF4007060646CE00025C4F824802221A6
:102FA00084F84110402084F84200656467855346E8
:102FB00065635A4604992046CDE9009604F0DEFC8C
:102FC00010B184F8405054E0618DFF2734484FF031
:102FD0008078FF294FF0007A04D927853A46434686
:102FE000009005E0618D53462185009094F82820DB
:102FF0002046049904F026FD00224B460421204679
:10300000009604F037FDA0BB2068616A406A087032
:10301000606A401C6062208D401E81B22185608DF7
:10302000401E6085608DD8B1D1B900224B46802109
:103030002046009604F01EFDD8B9608DFF2805D902
:1030400027853A464346009506E026E0608D5346C4
:103050002085009594F828202046049904F0F2FC7D
:10306000608D0028C8D132464946204604F040FD14
:1030700018B1012007B0BDE8F08F21682020094A6F
:10308000C86121684B6813404B6084F8410084F8A4
:103090004250002084F84050ECE70220EAE70000AC
:1030A0000024008000E800FE2DE9FF4F83B00446B5
:1030B00090F841009A469346DDE91087DDF8489084
:1030C000202871D15FEA080014D09FB194F8400025
:1030D000012869D0012084F84000FFF777FE012223
:1030E000064619230090D103204604F0C3FC0028B3
:1030F0006ED103E04FF40070606469E00025C4F80D
:103100002480212184F84110402084F84200656425
:103110006785534665635A4604992046CDE9009673
:1031200004F05EFC10B184F8405051E0608DFF2740
:103130004FF08078FF284FF0007A04D927853A466F
:103140004346009505E0608D53462085009594F830
:1031500028202046049904F075FC32464946204652
:1031600004F0F2FCA0BB606A216800788862606AA3
:10317000401C6062608D401E6085208D401E80B2C4
:103180002085618DD9B1D0B900224B4680212046DF
:10319000009604F06FFCD8B9608DFF2805D927850B
:1031A0003A464346009506E026E0608D534620856A
:1031B000009594F828202046049904F043FC608D83
:1031C0000028CAD132464946204604F091FC18B185
:1031D000012007B0BDE8F08F20682021074AC161B7
:1031E000206843681340436084F8411084F84250DB
:1031F000002084F84050ECE70220EAE700E800FEF7
:103200002DE9F041B6B00446142130A8FDF704FBC7
:10321000C0216846FDF700FBDFF8E480122639493B
:10322000042720680024364D08F10808884227D179
:10323000002021940821CDE90010684601F07CFAB5
:1032400008B1FFF74EFC286840F0020028602868AB
:1032500030A900F002003590C0203090CDE93164F3
:103260002948CDE93347FFF783FCD8F8001041F433
:103270000011C8F80010D8F8000000F400103BE07E
:103280002249884239D1002021940821CDE900103B
:10329000684601F051FA08B1FFF723FC286840F0B6
:1032A00080002860286800F080003590286840F091
:1032B0000100286028684FF48075309530A900F02F
:1032C0000100CDE931643394CDE934701048FFF743
:1032D0004FFC309530A9CDE931640E48CDE9334734
:1032E000FFF746FCD8F8001041F40001C8F80010C0
:1032F000D8F8000000F40000359036B0BDE8F08149
:10330000E04402580054004000040258005C0040B1
:10331000001C0258000002580248816802781144DB
:10332000816070478C020024032010B500F0FEF885
:1033300002F07AF80F4A104914681368C4F30322A4
:1033400003F00F038A5CC95C02F01F0201F01F0149
:10335000D0400A4A20FA01F11160094908600F20A3
:1033600000F010F808B1012010BD00F09FF8002017
:1033700010BD0000184402584C0601089C020024AD
:103380009802002410B5102804468AB02CD20022DE
:103390000146362000F0AAF8362000F099F81748C8
:1033A00004601748016841F010010160006809A934
:1033B00000F010000890684601F0C2FF0598B0B117
:1033C00002F00EF840000F4900220F4CB0FBF1F163
:1033D0000E4840F2E7330460C0E90332491EC0E9F9
:1033E000011203F0F1FC28B101200AB010BD01F078
:1033F000F7FFE8E7054803F02DFDF6E7900200240B
:10340000E844025840420F0000100040FC0800242D
:10341000154BF0B5083B427813491A600B680A1F38
:1034200023F001030B6043681360057BC67A827A40
:10343000437B2D07847B45EA0665C77B90F809C06E
:10344000067A90F800E045EAC24040EA834040EA4C
:10345000444040EA074040EA0C2040EA460040EA87
:103460000E000860F0BD0000A0ED00E0BFF35F8F2C
:10347000044800210368034A23F480330360703258
:103480001160704724ED00E0074A40F00100064952
:1034900070321060086840F480300860BFF34F8FCE
:1034A000BFF36F8F7047000024ED00E0074882B043
:1034B000016841F002010160006800220F2100F064
:1034C00002000090901E02B000F010B8F4440258C0
:1034D000002809DB410900F01F028900012001F1E9
:1034E000E0219040C1F80001704700000E4BF0B49D
:1034F0001B680D46C3F30223C3F10706042E00D94F
:103500000426191D072901D2002300E0DB1E012437
:1035100004FA06F19C40491E2940641E994014405B
:103520002143F0BC08F079BB0CED00E0064900F047
:10353000070210B54FF6FF040868044B204040EA2C
:1035400002201843086010BD0CED00E00000FA05F1
:1035500001680123C0F8D834002280F8CC2488699F
:10356000044A40F000608861486D104348650020BF
:10357000704700000300001070470068416200209F
:103580007047F0B503685D6A39B19F6A4C1E002030
:103590004FF4827605EB17450BE045EA024098624E
:1035A00010E0471C06EB800053F800C0F8B205EBB2
:1035B0001C45A042F5D34FF4807000EB810045EA32
:1035C00002421A500020F0BDD0F8E00407F014BA0F
:1035D00001EBC10200EB8202D0F8E004126A07F0AE
:1035E00064B901EBC10200EB8202D0F8E004D2F82A
:1035F000602207F0B6B9D0F8E00407F0FFB90A0678
:1036000001F00F0101EBC10100EB810101D5143183
:1036100001E001F51571006808F0FAB801F00F0239
:103620000B0670B502EBC20104464FF001004FF0EB
:10363000000504EB810102D54875143103E081F8DF
:10364000555201F515710A7094F89424012A08D096
:1036500084F89404206807F0F9FD002084F894545D
:1036600070BD022070BD70B50279044601F00F00F4
:10367000904201D9012070BD01F00F024FF000050A
:103680000B0602EBC2014FF0010204EB810102D5EF
:103690004A75143103E081F8555201F515718D70AA
:1036A000087094F89404012808D084F894242068C1
:1036B00007F036FF002084F8945470BD022070BDDE
:1036C00001F00F0101EBC10100EB8100D0F86802AD
:1036D00070472DE9F04101F00F0604460D064FF04A
:1036E000010006EBC6014FF0000504EB810102D595
:1036F0004875143103E081F8555201F51571C2F394
:103700000A024F780B718A600E7007B14E83022B4C
:1037100000D14D7194F89424012A09D084F89404BE
:10372000206807F0D1FC284684F89454BDE8F08165
:103730000220FBE770B501F00F05002405EBC50181
:1037400000EB810101F5187181E81C0001F80B4CB8
:1037500001F80C5D8379012B00D1CA618279006880
:1037600007F036FF002070BD70B50D4601790446A4
:1037700005F00F00884201D9012070BD29064FF0E5
:1037800000064FF0010206D500EBC00104EB8101F9
:103790004A75143107E005EBC50104EB810181F89E
:1037A000556201F515718A70087094F89404012827
:1037B00007D084F89424206807F0DEFE280702D0A2
:1037C00007E0022070BDA17904F29C42206807F056
:1037D0007BFE002084F8946470BD70B501F00F0486
:1037E000002504EBC401012600EB8101203181E8B2
:1037F0002C0001F80B6C01F80C4D8379012B00D1E2
:10380000CA618279006807F0E3FE002070BD000005
:103810002DE9FC5F05680446284608F0CDF800282D
:103820007ED1206808F0F4F8002879D0D5F808088F
:10383000C0F30D20C4F8D404206808F0E9F880072C
:1038400004D52068416901F002014161206808F057
:10385000DFF8C10604F29C40009035D520688169EC
:1038600021F0100181612F6A07F00F00C7F3434177
:1038700000EBC000022904EB800606F5157602D0A5
:10388000062912D01BE047F6F070074217D0C7F3A5
:103890000A12F1681746284608F0BEF87169F06808
:1038A000394471613844F06009E0009908222846E3
:1038B00008F0B2F87069C7F30A1108447061206813
:1038C000816941F010018161206808F0A1F80003CE
:1038D0004FF0080B4FF0000A4FF001097CD520682B
:1038E000002608F074F8074674E0F80770D02068E6
:1038F000F1B208F085F88046C00707D005EB461105
:10390000C1F8089B3146204604F022FC5FEA0870AB
:1039100024D505EB4611C1F808BBFE49206800E03C
:1039200048E2026C00EB461001928A42D0F8081B74
:1039300005D9090403D54FF40041C0F8081B2046FF
:1039400000F029FBF3480199814207D9A0790128A9
:1039500004D120680121009A07F0B6FD5FEAC86033
:1039600004D505EB46111020C1F8080B5FEA8870FA
:103970001DD56869000605D5D5F8040840F48061B6
:10398000C5F8041806EBC60004EB800090F8571247
:1039900000F51570012905D180F803A02046F1B289
:1039A00000F00EFA05EB46110220C1F8080B5FEAA1
:1039B000886004D505EB46112020C1F8080B5FEAAA
:1039C000884005D505EB46114FF40050C1F8080BAF
:1039D0007F08761C002F88D1206808F019F8400372
:1039E0006ED5206807F0ECFF0026074666E0F80772
:1039F00062D02068F1B207F0F1FF8046C00723D003
:103A0000D5F8342806F00F0C05EB461309FA0CF034
:103A10008243C5F83428C3F80899A07901280FD14A
:103A200006EBC60004EB8000D0E9072111440162D7
:103A300036B9606A20B920680121009A07F044FD78
:103A40002046F1B2FFF7C4FD5FEA087003D505EB2D
:103A50004611C1F808B95FEAC86004D505EB461104
:103A60001020C1F808095FEA486004D505EB46114B
:103A70004020C1F808095FEA887016D5314628460B
:103A800007F06FFF06EBC60004EB8000C17D143029
:103A9000012905D180F803A02046F1B200F08CF98D
:103AA00005EB46110220C1F808095FEA086003D55A
:103AB0003146204604F0B2FB7F08761C002F96D1D9
:103AC000206807F0A5FF002811DAD5F8040820F0D7
:103AD0000101C5F8041894F8CC0401283BD0204615
:103AE00000F03EFA2068416901F000414161206820
:103AF00007F08EFF00050BD5D5F80808C00702D0E7
:103B0000204600F071FA2068416901F400614161CA
:103B1000206807F07DFF00010AD52068416901F0A7
:103B20000061416194F8CC04E0B1204600F05CFAF9
:103B3000206807F06DFFC00473D5D5F8040820F0A5
:103B40000101C5F804182068102107F00AFF0021C0
:103B50004FF67F322DE00021204684F8CCA4FFF7F9
:103B60000BFDBFE784F8CC942068406D0121C0F3C1
:103B70008300C4F8D0042046FFF7FEFCD8E700BF5E
:103B800005EB4110C0F80829D0F8003923F40013E0
:103B9000C0F80039C0F8082BD0F8003B23F400131C
:103BA000C0F8003BD0F8003B43F00063C0F8003B96
:103BB000491C20798842E3D8D5F81C08294640F0F2
:103BC0000110C5F81C08E07B68B1D1F8840840F00A
:103BD0000B01C5F88418D5F8440840F00B012846BD
:103BE000C5F844180DE0D5F8140842F22B0108433B
:103BF000C5F81408D5F8100840F00B012846C5F8A0
:103C00001018D0F8000820F4FE61C5F80018A1795A
:103C10002068009A07F058FC2068416901F480513F
:103C20004161206807F0F4FE800415D5206807F094
:103C30008BFA206807F0B3FEE07101F0AFFBE27988
:103C40000146206807F048FF204600F073F920681D
:103C5000416901F400514161206807F0D9FE000775
:103C600007D5204600F080F92068416901F008017D
:103C70004161206807F0CCFE00061FD5A96901202C
:103C800021F08001A96116E000EBC00104EB810185
:103C900091F8571201290DD105EB4011D1F8002BF5
:103CA00042F00062C1F8002BD1F8002B42F08042B4
:103CB000C1F8002B401C21798142E5D8206807F02B
:103CC000A7FEC0021FD501264F4614E006EBC60131
:103CD00005EB461004EB8102D0F80009117E0129A2
:103CE00008D1002806DAF0B2D77540F080012046EE
:103CF000FFF785FC761C2079B042E7D8206841693F
:103D000001F480114161206807F082FE800234D501
:103D1000012001E00A30544F4A4626E000EBC00380
:103D200005EB401104EB8306D1F8001B96F85832DE
:103D3000012B19D1002917DA94F8D434C1F30041CA
:103D400003F001038B420FD186F85722A96941F095
:103D50008003AB616969090606D4D5F8040840F40C
:103D60000070C5F8040803E0401C21798142D5D8D1
:103D70002168486900F400104861206807F048FE97
:103D8000400007D52046FFF71FFC2068416901F07D
:103D900080414161206807F03BFE40070AD520685A
:103DA0004568680702D52046FFF725FC2068416872
:103DB00029434160BDE8FC9FD0F8E00406F073BEE3
:103DC000D0F8E00406F083BEF8B5040004D094F8FF
:103DD0009504002510B106E00120F8BD204684F8C6
:103DE000945400F057F8032084F89504206807F0F5
:103DF00065FB207C8DF8000094E80F0007F0B2F915
:103E00000226B0BB2068002107F026FE88BB0020F8
:103E100001270CE000EBC001421C04EB81014F754F
:103E20000D76CD610D624D620875C885D0B22179DD
:103E30008142EFD8002011E000EBC001421C04EBEE
:103E4000810181F8555281F85852C1F85C52C1F88D
:103E50006052C1F8645281F85402D0B22179814293
:103E6000EAD8207C8DF8000094E80F0007F070FA83
:103E700010B184F89564AFE7207B657484F895747D
:103E8000012802D12046FFF763FB206807F052FAB1
:103E90000020F8BD10B5B6B00446142130A8FCF7D8
:103EA000BBFCC0216846FCF7B7FC1F49206888426C
:103EB00038D100204FF480214FF440122292CDE9F6
:103EC0000010684600F038FC08B1FEF70AFE00F06A
:103ED000CDF81648016841F00101016000680A232D
:103EE000022200F00100359000204FF4C0513091C3
:103EF00030A9CDE93120CDE933030D48FEF738FE76
:103F00000A480838016841F0006101600068002239
:103F1000052100F0006035906520FFF7E7FA652085
:103F2000FFF7D6FA36B010BD00000840E044025852
:103F30000000025870B50446C079012570B102280E
:103F400001D0FEF7CEFDD4F8E004294606F02FFE9E
:103F5000D4F8E004BDE8704006F0E2BD0025F2E7C9
:103F6000D0F8E00406F00CBED0F8E00406F012BE73
:103F700010B5044690F8940401280AD00120617419
:103F800084F89404206807F096FD002084F89404D7
:103F900010BD022010BDD0F8E02400F29C41104674
:103FA00006F011BE10B590F894140446006801297B
:103FB00009D0012184F89414C168490609D5617BB0
:103FC000012902D005E0022010BD816B41F480314F
:103FD0008163206807F0A3FC206807F09DF90020AA
:103FE00084F8940410BD000010B50446D0F8E00435
:103FF00006F02BFE2068D0F8001E41F00101C0F849
:10400000001EE07A002804D00248016841F0060151
:10401000016010BD10ED00E0134970B50A68D2438D
:10402000520705D5096801F00701814213D118E054
:104030000A6822F0070202430A60FEF7C7FE0A4D33
:104040004FF47A760446083D07E000BFFEF7BEFE57
:10405000001BB04201D9012070BD2868C043800414
:10406000F4D4002070BD00000C48025802480168DA
:1040700041F08071016070470C48025810B501F0A2
:104080008DF905490968054AC1F30211515C01F037
:104090001F01C84010BD0000204402584C06010812
:1040A0004A4930B5494C0B1D0A680C3409681D6833
:1040B000246802F0030305F00102C1F30511C4F303
:1040C000CC04002914FB02F200EE102AF8EE400A9C
:1040D00076D0414A9FED3E1ADFED3E1AB7EE000A58
:1040E00023B1012B5AD0022B18D15CE0374C283C6D
:1040F00023689B0612D5394B246801EE901A11688B
:10410000C4F3C104F8EE612AE34001EE903AC1F332
:104110000801F8EE611A81EEA22A07E002EE101AF9
:104120001168F8EE422A81EEA22A45E001EE901ACB
:104130001168F8EE611A40EE811A71EE800A62EEA3
:10414000200AC1F3462101EE101AB8EE411A31EEF1
:10415000001AC0EE811ABCEEE11A80ED001A116857
:10416000C1F3064101EE101AB8EE411A31EE001A01
:10417000C0EE811ABCEEE11A80ED011A1168C1F39C
:10418000066101EE101AB8EE411A31EE000A80EE17
:10419000801ABCEEC10A80ED020A30BD01EE901A11
:1041A000DFED0F2A03E001EE901ADFED0E2A116811
:1041B000F8EE611A82EEA12AC1F30801B6E7FFE723
:1041C000002101604160816030BD00002844025838
:1041D000000000390024744C304402580090D00391
:1041E0000024744A20BCBE4B494930B5484C0B1DD5
:1041F0000A68143409681D68246802F00303C5F3D3
:104200000012C1F30531C4F3CC04002914FB02F2FF
:1042100000EE102AF8EE400A75D03F4A9FED3D1A95
:10422000B7EE000A6BB1DFED3D1A012B01D0022B76
:1042300064D002EE101A1168F8EE422A81EEA22A2A
:1042400021E0334C283C23689B0612D5344B24686C
:1042500001EE901A1168C4F3C104F8EE612AE3403C
:1042600001EE903AC1F30801F8EE611A81EEA22A3C
:104270000BE001EE901ADFED2B2A00BFF8EE611A79
:10428000116882EEA12AC1F3080101EE901A1168AB
:10429000F8EE611A40EE811A71EE800A62EE200A91
:1042A000C1F3462101EE101AB8EE411A31EE001AA0
:1042B000C0EE811ABCEEE11A80ED001A1168C1F35C
:1042C000064101EE101AB8EE411A31EE001AC0EEA6
:1042D000811ABCEEE11A80ED011A1168C1F3066182
:1042E00001EE101AB8EE411A31EE000A80EE801A83
:1042F000BCEEC10A80ED020A30BD04E001EE901A66
:10430000DFED092ABAE70021016041608160F3E72F
:104310002844025800000039384402580024744AE6
:104320000090D0030024744C20BCBE4B494930B5EA
:10433000484C0B1D0A681C3409681D68246802F08B
:104340000303C5F30022C1F30551C4F3CC040029D3
:1043500014FB02F200EE102AF8EE400A75D03F4A34
:104360009FED3D1AB7EE000A6BB1DFED3D1A012B50
:1043700001D0022B64D002EE101A1168F8EE422A26
:1043800081EEA22A21E0334C283C23689B0612D5FB
:10439000344B246801EE901A1168C4F3C104F8EE9E
:1043A000612AE34001EE903AC1F30801F8EE611A88
:1043B00081EEA22A0BE001EE901ADFED2B2A00BF5E
:1043C000F8EE611A116882EEA12AC1F3080101EE2C
:1043D000901A1168F8EE611A40EE811A71EE800AA7
:1043E00062EE200AC1F3462101EE101AB8EE411A1E
:1043F00031EE001AC0EE811ABCEEE11A80ED001A0F
:104400001168C1F3064101EE101AB8EE411A31EEFF
:10441000001AC0EE811ABCEEE11A80ED011A116893
:10442000C1F3066101EE101AB8EE411A31EE000A2E
:1044300080EE801ABCEEC10A80ED020A30BD04E0B5
:1044400001EE901ADFED092ABAE700210160416010
:104450008160F3E7284402580000003940440258C4
:104460000024744A0090D0030024744C20BCBE4B3E
:104470002DE9F04FAC4A0546DFF8A8A280F4807021
:10448000DFF8AC9289B01311AA4C0843A748AAF1EF
:1044900004064FF0805C4FF000582CD085F4007774
:1044A0000F4357D0DFF87CB285F480670F430BF1E0
:1044B000080B61D085F400670F4374D085F48057F2
:1044C0000F436ED085F400570F434FF480394FF4FB
:1044D000003E67D085F400270F4371D085F4803704
:1044E0000F436ED085F480460E436BD085F40042B6
:1044F0000A4368D02AE0DAF8001001F00701052924
:1045000024D2DFE801F075BC7D25B10006A8FFF7D5
:10451000C7FD079809B0BDE8F08F6846FFF764FE55
:104520000098F7E703A8FFF701FF0398F2E7206878
:10453000C0F3C10022FA00F0ECE72268D20571D581
:1045400061456FD11846E5E74145E3D00020E1E73A
:104550004846DFE7DAF8001001F4E07180294FD017
:1045600004DC002944D04029F0D188E0C029EFD0F4
:10457000B1F5807FEAD177E0DBF8001001F460014B
:10458000B1F5800F3CD004DC91B3B1F5001FDDD153
:1045900075E0B1F5C00FDBD0B1F5000FD6D163E007
:1045A00001E018E030E0DBF8001001F0E061B1F16B
:1045B000007F25D008DCD9B1B1F1807FC6D15EE0A3
:1045C00049E06CE079E09CE0B1F1407FC0D0B1F10E
:1045D000806FBBD148E0DAF8001001F4E041B1F59A
:1045E000005F0DD005DC19B1B1F5805FAED146E0BA
:1045F00094E0B1F5405FABD0B1F5804FA6D133E088
:1046000020688000A2D58DE7DAF8001001F4E021DF
:10461000B1F5403F6CD006DC61B149457AD07145B7
:1046200094D157E037E0B1F5802F65D0B1F5A02FD8
:104630008CD10CE000F0D4FE6CE76846FFF7D4FDA7
:10464000019867E703A8FFF771FE049862E7216805
:104650008903F1D47AE7DBF8001011F440310ED071
:10466000494510D07145F5D13168256801F04051B8
:104670006D077FF562AF00297FF45FAF57E72068D1
:104680000001E7D549E720688000E3D503A8FFF7DC
:104690004DFE05983EE722689203DBD554E730686B
:1046A00010F480303AD04845D4D120680001D1D5EB
:1046B0006846FFF799FD02982CE7DBF8001001F03F
:1046C000E041B1F1405F13D008DC71B1614521D008
:1046D0004145BFD120688000B4D437E7B1F1804FA5
:1046E0000AD0B1F1A04FB2D030E7FFF7C7FC11E715
:1046F00020684007AED51AE72068C005AAD521E793
:1047000008E0DAF8001011F04051A0D0614505D062
:1047100041459FD1206800018FD417E720688001B0
:1047200098D5F3E6504402580090D00340787D01BC
:104730000080BB00004402582DE9FE4F0546DFF81B
:10474000E48350F8081B0024F64FC943019005F19B
:104750002800264608F12408009008011DD4A86E00
:1047600050B1B0F5801F0CD0B0F5001F0ED0B0F5E1
:10477000401F1ED001240FE0386840F4003038603C
:1047800017E00198022103F09BFD03E0009802214D
:1047900003F026FE04000CD026462888C043C0053E
:1047A00023D4A86D05281ED2DFE800F00C11161BDB
:1047B0001B00AA6ED8F8001021F440111143C8F86C
:1047C0000010EAE7386840F40030386009E00198EA
:1047D000002103F075FD03E00098002103F000FEC6
:1047E000044674B100E0012426462888C0438005B1
:1047F00028D4E86D80281ED00CDC90B140280ED162
:1048000014E0AA6DD8F8001021F007011143C8F890
:104810000010EAE7C02813D0B0F5807F10D0012443
:104820000FE0386840F40030386009E0019800215A
:1048300003F046FD03E00098002103F0D1FD04469B
:104840009CB126462888DFF8DC92C04309F12C0988
:1048500040052CD4D5F8A800B0F5800F20D00DDC91
:10486000A0B1B0F5001F0FD115E0EA6DD8F8001027
:1048700021F4E0711143C8F80010E3E7B0F5C00F70
:1048800013D0B0F5000F10D001240FE0386840F4C9
:104890000030386009E00198002103F011FD03E0C9
:1048A0000098002103F09CFD04467CB12646288830
:1048B000C04300052DD4D5F8AC00B0F1007F21D065
:1048C0000EDCA8B1B0F1807F10D116E0D5F8A82099
:1048D000D9F8001021F460011143C9F80010E6E78F
:1048E000B0F1407F13D0B0F1806F10D001240FE001
:1048F000386840F40030386009E00198002103F086
:10490000DFFC03E00098002103F06AFD044674B167
:1049100026462868C04380011FD4E86CD8B110280F
:104920000FD0202812D0302815D0012414E0D5F85B
:10493000AC20D9F8001021F0E0611143C9F8001053
:10494000E7E7386840F40030386004E0019802215D
:1049500003F0B6FC044674B126462888C043C00460
:104960002BD4286EB0F5005F20D00DDCA0B1B0F5DF
:10497000805F0FD115E06B48EA6C2030016821F0B0
:10498000300111430160E8E7B0F5405F13D0B0F5A6
:10499000804F10D001240FE0386840F400303860B8
:1049A00009E00198002103F08BFC03E0009800214E
:1049B00003F016FD04468CB126462888C0438004C7
:1049C00029D4686EB0F5403F23D010DC08B3B0F5B1
:1049D000803F14D0B0F5003F0FD115E02A6ED8F813
:1049E000001021F4E0411143C8F80010E5E7B0F5EC
:1049F000802F0ED0B0F5A02F0BD001240AE0019833
:104A0000012103F05DFC03E00098012103F0E8FCC4
:104A1000044694B126462888C04340042AD4D5F8D9
:104A2000B000B0F1405F23D010DC08B3B0F1805F7C
:104A300014D0B0F1005F0FD115E06A6ED8F8001005
:104A400021F4E0211143C8F80010E4E7B0F1804FF1
:104A50000ED0B0F1A04F0BD001240AE00198012143
:104A600003F02EFC03E00098012103F0B9FC04469A
:104A700074B126462888C04300041FD4286FD8B1DB
:104A8000B0F1805F0ED0B0F1005F10D0012414E0CF
:104A9000D5F8B020D9F8001021F0E0411143C9F851
:104AA0000010E7E7386840F40030386004E001980F
:104AB000012103F005FC044674B126462868C04372
:104AC000C0011ED4A86CD0B101280ED0022811D08C
:104AD000032814D0012413E02A6FD8F8001021F025
:104AE00040511143C8F80010E8E7386840F400303E
:104AF000386004E00198022103F0E2FB0446ACB107
:104B000026462868DFF81CB0C043ABF11C0B4002FE
:104B100052D40548016841F480710160FEF756F9EE
:104B2000824611E02C44025800480258FA48AA6C08
:104B3000016821F0030111430160E2E7FEF746F945
:104B4000A0EB0A00642835D8F4480068C005F5D504
:104B50008CBBDFF8C4A3B5F8B4100AF1240ADAF864
:104B6000000001F4407100F44070884211D0DAF87E
:104B70000010DAF8002021F4407142F48032CAF8C3
:104B80000020DAF8002022F48032CAF80020CAF8A7
:104B90000010D5F8B400B0F5807F1AD1FEF716F9F1
:104BA000029012E0FEF712F90299411A41F28830A0
:104BB00081420AD9032426462878DFF85CA3C04343
:104BC0000AF1080AC00721D03CE0DAF800008007AB
:104BD000E8D5D5F8B410C1F30120032858460DD00C
:104BE000016821F47C510160B5F8B420DAF80010B6
:104BF000C2F30B021143CAF80010DDE7C84A03688C
:104C000002EA111223F47C511143ECE7E86F1828F3
:104C100016D005DCA0B1082808D0102804D10AE07D
:104C200020280DD028280BD001240AE0019801216A
:104C300003F046FB03E00098012103F0D1FB04469A
:104C400064B126462878C04380071ED4A86F062882
:104C500019D2DFE800F0160C11161616EA6FDAF812
:104C6000001021F038011143CAF80010EAE701985A
:104C7000012103F025FB03E00098012103F0B0FBC4
:104C800004467CB100E0012426462878C043400752
:104C90001FD4D5F89400062819D2DFE800F0160CCE
:104CA00011161616AA6FDAF8001021F00701114349
:104CB000CAF80010E9E70198012103F001FB03E0C5
:104CC0000098012103F08CFB0446A4B100E001240C
:104CD00026462878C04380062BD4D5F89000B0F142
:104CE000405F24D011DC10B3B0F1805F15D0B0F17B
:104CF000005F10D116E0D5F89420D9F8001021F00B
:104D000007011143C9F80010E3E7B0F1804F0ED05E
:104D1000B0F1A04F0BD001240AE00198002103F06C
:104D2000CFFA03E00098022103F05AFB044694B145
:104D300026462878C04340062BD4D5F89C00B0F511
:104D4000406F24D011DC10B3B0F5806F15D0B0F5F2
:104D5000006F10D116E0D5F89020DAF8001021F09D
:104D6000E0411143CAF80010E3E7B0F5805F0ED0D0
:104D7000B0F5A05F0BD001240AE00198002103F0F8
:104D80009FFA03E00098022103F02AFB044694B145
:104D900026462878C04300062BD4D5F8A000B0F5ED
:104DA000C04F24D011DC10B3B0F5005F15D0B0F5C2
:104DB000804F10D116E0D5F89C20D9F8001021F4CE
:104DC000E0511143C9F80010E3E7B0F5004F0ED0F1
:104DD000B0F5204F0BD001240AE00198002103F028
:104DE0006FFA03E00098022103F0FAFA044654B186
:104DF00026462878C04300071ED4D5F88400B0F5B5
:104E0000805F0AD00FE0D5F8A020D9F8001021F477
:104E100060411143C9F80010EBE70098022103F04C
:104E2000DFFA00B10126D5F88420DAF8001021F469
:104E300040511143CAF800102878C043C00613D46B
:104E4000D5F89800B0F5807F05D10098022103F0D5
:104E5000C7FA00B10126D5F89820D9F8001021F43E
:104E600040711143C9F800102868C043000316D4EC
:104E7000D5F8A40038B1B0F5803F09D0B0F5003FB7
:104E80000BD001240AE00198002103F019FA03E095
:104E90000098022103F0A4FA04468CB12646286843
:104EA000C043400322D4D5F88800B0F5801F11D04C
:104EB000B0F5001F13D0B0F5401F15D0012414E049
:104EC000D5F8A420D9F8001021F440311143C9F8D5
:104ED0000010E4E7386840F40030386004E00098DF
:104EE000012103F07DFA04465CB126462868C043E0
:104EF000C00323D4286DA8B1B0F5803F17D001249A
:104F00001BE0D5F88820DAF8001021F44011114395
:104F1000CAF80010EAE700004C4402580048025862
:104F2000CFFFFF00386840F40030386004E001989B
:104F3000022103F0C5F90446E4B126462868C043BF
:104F4000800005D40098022103F04AFA00B101263E
:104F50002868C04380031BD4D5F88000B0B1B0F5F9
:104F6000807F0FD0B0F5007F10D0B0F5407F0DD01E
:104F700001240CE05A482A6D016821F48031114364
:104F80000160DBE7386840F400303860ECB3264657
:104F90002868C043C00207D46A6FD8F8001021F017
:104FA00000411143C8F800102868C043C00008D46D
:104FB000D5F8B820DBF8001021F480411143CBF87C
:104FC00000102868C043800207D4EA6ED8F80010A9
:104FD00021F080711143C8F800102868C0434000D8
:104FE0000CD4DBF8001021F40041CBF80010DBF802
:104FF0000010D5F8BC201143CBF800102868C0433E
:1050000008D437486A6D016800E018E021F040518B
:10501000114301602868C043000208D4D5F88C20F1
:10502000DAF8001021F440011143CAF80010287981
:105030000024C04300F0010020430AD00FE0D5F85F
:105040008020DAF8001021F440711143CAF80010F2
:105050009EE70198002103F033F900B10646287954
:10506000C04300F00200204305D10198012103F064
:1050700027F900B106462879C04300F00400204318
:1050800005D10198022103F01BF900B106462879E9
:10509000C04300F00800204305D10098002103F030
:1050A0009FF900B106462879C04300F01000204364
:1050B00005D10098012103F093F900B10646287943
:1050C000C04300F02000044304D10098022103F003
:1050D00087F900B916B10120BDE8FE8F0020FBE77B
:1050E0004C4402582DE9F05F04000F467ED0DFF8F3
:1050F0003882D8F8000000F00F00B8420CD2D8F87F
:10510000001021F00F013943C8F80010D8F8000052
:1051100000F00F00B84269D12078844D40070AD5CD
:105120002069296801F07001884204D9296821F0BA
:1051300070010143296020787C4E361D00070AD596
:105140006069316801F07001884204D9316821F04A
:105150007001014331602078C0060AD5A06931682A
:1051600001F4E061884204D9316821F4E06101432F
:1051700031602078DFF8B4B180060BF1080B0CD554
:10518000E1695846DBF8002002F07002914204D930
:10519000026822F070020A430260207880070AD574
:1051A000E068296801F00F01884204D9296821F0DC
:1051B0000F01014329602078C0073ED05B49A268F7
:1051C0002868183920F4706010432860606802284D
:1051D00018D0032819D00968012819D049070029D7
:1051E0004ADADFF848A1AAF1080A00E044E0DAF858
:1051F000002022F007020243CAF80020FDF7E6FD76
:10520000814612E009688903E9E709688901E6E750
:10521000C905E4E7FDF7DAFDA0EB090141F28830AA
:10522000814202D90320BDE8F09F6168DAF80000EE
:1052300000F03800B0EBC10FECD1207880070AD520
:10524000E068296801F00F01884204D2296821F042
:105250000F0101432960D8F80010404601F00F010A
:10526000B9420BD9016821F00F0139430160006890
:1052700000F00F00B84201D00120D4E720784007A9
:105280000AD52069296801F07001884204D2296892
:1052900021F0700101432960207800070AD5606978
:1052A000316801F07001884204D2316821F0700148
:1052B000014331602078C0060AD5A069316801F445
:1052C000E061884204D2316821F4E0610143316039
:1052D000207880060CD5E1695846DBF8002002F002
:1052E0007002914204D2026822F070020A43026006
:1052F00000F09AF80E492A682B68C2F3032203F0E3
:105300000F038A5CC95C02F01F0201F01F01D0404C
:10531000084A20FA01F1116007490860074800684F
:10532000BDE8F05FFEF72EB8002000521844025886
:105330004C0601089C0200249802002490020024DC
:1053400070B5144C3F220260124A24680832131DC3
:10535000114D04F00704446016681C1D06F47066C5
:105360008660166806F00F06C660126802F07002CA
:1053700002611A6802F0700242611A6802F4E06287
:105380008261226802F07002C261286800F00F009A
:10539000086070BD104402580020005230B500F083
:1053A00043F80B4A0B490C4B15681468C5F30322EC
:1053B00004F00F048A5C095D02F01F0201F01F0176
:1053C000D040064A20FA01F119601060084630BD4D
:1053D000184402584C0601089C020024980200243C
:1053E00000B5FFF7DBFF05490968054AC1F3021163
:1053F000515C01F01F01C84000BD00001C44025870
:105400004C06010800B5FFF7C9FF05490968054AC0
:10541000C1F30221515C01F01F01C84000BD000032
:105420001C4402584C060108454970B545480968B6
:10543000434B103B11F0380208D00111082A03D069
:10544000102A0BD0182A0BD0084670BD196889069F
:10545000FBD51968C1F3C101C84070BD3A4870BDA1
:105460003749374D18310C1D24350A6809682668FC
:105470002D6802F0030406F00102C1F30511C5F323
:10548000CC0515FB02F200EE102AB8EE400AE9B393
:105490002F4ADFED2E0AB7EE001A6CB1DFED2D1AA0
:1054A000012C01D0022C43D002EE101A1068F8EE45
:1054B000422A81EEA22A1EE01C68A40611D51B68B0
:1054C00001EE901A1168C3F3C103F8EE612AD840C7
:1054D00001EE900AC1F30800F8EE611A81EEA22AEB
:1054E0000BE001EE901ADFED1C2A00BFF8EE611A06
:1054F000106882EEA12AC0F3080001EE900AF8EECF
:10550000611A40EE201A31EE810A00E015E022EE29
:10551000000A1068C0F34620401C00EE900AF8EE26
:10552000600A80EE201ABCEEC10A10EE100A70BDAF
:1055300001EE901ADFED092AD8E7002070BD0000C7
:10554000104402580090D00340787D0100000039DB
:10555000304402580024744A0024744C20BCBE4BD2
:105560002DE9F05F04007DD0FF4F2078FE4D183705
:10557000DFF8F493103DC00748D0D9F8000039682F
:1055800000F03800102815D0182803D101F00300CE
:1055900002280FD06068B0F5803F12D010B1B0F58E
:1055A000A02F18D0286820F480302860286820F4C4
:1055B000802009E02868800328D560680028D2D0C0
:1055C00024E0286840F480302860606888B1FDF7E6
:1055D000FDFB064609E0286840F480202860F0E7DB
:1055E000FDF7F4FB801B64286FD828688003F7D58B
:1055F0000CE0FDF7EBFB064605E000BFFDF7E6FB20
:10560000801B6428F0D828688003F7D4207841F202
:105610000308D54E0C3E800769D5D9F800003968DB
:1056200010F038000ED0182801D188070AD0E068A1
:1056300090B3296821F0190101432960FDF7C6FBE9
:10564000824631E02868400702D5E06800288AD009
:10565000E168286820F0190008432860FDF7B6FBD0
:10566000824607E0DFE000BFFDF7B0FBA0EB0A00D9
:105670000228B9D828684007F6D500BFFDF7A0FB7F
:1056800040451BD82069402812D0316821F47C3174
:1056900041EA003030602AE018E000BFFDF796FBD9
:1056A000A0EB0A0002289FD828684007F6D5E5E756
:1056B000306820F47C3040F40030EBE7207C316827
:1056C00021F0FE4141EA0060E4E70DE1286820F0A6
:1056D00001002860FDF77AFB824605E0FDF776FBC6
:1056E000A0EB0A0002288DD828684007F6D420785D
:1056F000C0065DD5D9F80000DFF86CB2396800F05B
:105700003800ABF1040B082810D0182803D101F0A1
:10571000030001280AD0E0690028286838D040F04A
:1057200080002860FDF752FB824623E02868C00510
:1057300023D5E069802876D11FE0206A202821D077
:10574000316821F0F84141EA8060306030E000BF0C
:1057500094F82010DBF8002022F07C5242EA01612C
:10576000CBF8001024E000BFFDF730FBA0EB0A00EF
:10577000022898D82868C005F6D5FDF721FB4045DA
:10578000E6D8DAE7306820F0F84040F08040DCE707
:1057900020F080002860FDF719FB064605E000BFF9
:1057A000FDF714FB801B02289DD82868C005F7D49C
:1057B0002078000729D56C4861696430002980464B
:1057C000016811D041F001010160FDF7FFFA0646C2
:1057D00005E000BFFDF7FAFA801B0228C9D8D8F807
:1057E00000008007F6D510E021F001010160FDF70F
:1057F000EDFA064605E000BFFDF7E8FA801B022837
:1058000072D8D8F800008007F6D42078800623D517
:10581000A0690028286810D040F480502860FDF767
:10582000D5FA064605E036E1FDF7D0FA801B0228DE
:105830005AD828688004F7D50EE020F480502860FC
:10584000FDF7C4FA064604E0FDF7C0FA801B022803
:105850004AD828688004F7D4207840074FD5DFF86D
:105860000C81D8F8001041F48071C8F80010FDF7E1
:10587000ADFA064605E000BFFDF7A8FA801B6428D4
:1058800032D8D8F80000C005F6D5374EA06860368B
:1058900001280AD008B1052813D0306820F0010093
:1058A0003060306820F0040002E0306840F0010011
:1058B0003060A06841F2883A90B1FDF787FA8046DF
:1058C0000AE0306840F004003060EEE7FDF77EFA51
:1058D000A0EB0801514507D830688007F6D50EE0E7
:1058E000FDF774FA804607E084E000BFFDF76EFA2A
:1058F000A0EB080151457DD830688007F6D4606A76
:10590000B0B3DFF86480D9F8001008F120084FF632
:10591000F87B08F10409C1F3C2010329A8F1040AC4
:1059200069D00228286820F08070286003D0FDF735
:105930004DFA044684E0FDF749FA064605E000BF4B
:10594000FDF744FA801B022877D828688001F7D435
:10595000E26A40F2F331386854F8283F884340EA5D
:1059600002101843386004E01044025800480258FE
:10597000B5E0217B434622894FF4FE0C208A4FF08C
:10598000FE474902267D521E401EA1F50071C2F35A
:1059900008088AB2761E0CEA004042EA0802024376
:1059A000504607EA06610A431A60DAF8002022F03E
:1059B0000102CAF80020D9F80020266A22EA0B0268
:1059C00042EAC602C9F80020DAF80010A26921F004
:1059D0000C011143CAF800100168E26921F00201CC
:1059E00011430160016841F480310160016841F4B4
:1059F000003101E021E027E00160016841F48021ED
:105A00000160016841F001010160286840F0807088
:105A10002860FDF7DBF9044605E000BFFDF7D6F985
:105A2000001B022809D828688001F7D557E000BF7D
:105A3000FDF7CCF9001B022802D90320BDE8F09F36
:105A400028688001F4D44AE039680128D8F80000B9
:105A500021D0A26A01F0030393421CD1E26AC1F390
:105A600005118A4217D1216BC0F30802491E8A42F0
:105A700011D1616BC0F34622491E91420BD1A16B3B
:105A8000C0F30642491E914205D1E16BC0F30660A6
:105A9000491E814201D00120D0E7A16C4E46D9F8C1
:105AA0000000C0F3CC00814219D0DAF8000055465E
:105AB00020F00100CAF80000FDF788F94FEA00075E
:105AC000FDF784F9B842FBD0A26C306820EA0B00E5
:105AD00040EAC2003060286840F0010028600020E1
